:020000040800F2
:100000000007002089010008631400085912000845
:10001000611400088F020008FF17000800000000AC
:10002000000000000000000000000000C5140008EF
:10003000910200080000000065140008C7140008C1
:10004000A3010008A3010008A3010008A301000800
:10005000A3010008A3010008A3010008A3010008F0
:10006000A3010008A3010008A3010008A3010008E0
:10007000A3010008A3010008A3010008A3010008D0
:10008000A3010008A3010008A3010008A3010008C0
:10009000A3010008A3010008A3010008A3010008B0
:1000A000A3010008A3010008A3010008A3010008A0
:1000B0002D150008A3010008A3010008A3010008F2
:1000C000A3010008A3010008A3010008A301000880
:1000D000A3010008A3010008A3010008A301000870
:1000E000A3010008A3010008A301000800F002F822
:1000F00000F03AF80AA090E8000C82448344AAF188
:100100000107DA4501D100F02FF8AFF2090EBAE885
:100110000F0013F0010F18BFFB1A43F0010318473B
:10012000D41F0000F41F0000103A24BF78C878C123
:10013000FAD8520724BF30C830C144BF04680C60ED
:10014000704700000023002400250026103A28BF35
:1001500078C1FBD8520728BF30C148BF0B60704739
:100160001FB51FBD10B510BD00F058F81146FFF7C0
:10017000F7FF01F055FB00F076F803B4FFF7F2FF4C
:1001800003BC00F07DF8000009488047094800479B
:10019000FEE7FEE7FEE7FEE7FEE7FEE7FEE7FEE737
:1001A000FEE7FEE704480549054A064B7047000094
:1001B00029150008ED0000080001002000070020BC
:1001C00000030020000300204FF0000200B513469A
:1001D00094469646203922BFA0E80C50A0E80C5067
:1001E000B1F12001BFF4F7AF090728BFA0E80C5018
:1001F00048BF0CC05DF804EB890028BF40F8042B11
:1002000008BF704748BF20F8022B11F0804F18BF7D
:1002100000F8012B7047704770477047754600F033
:100220002BF8AE4605006946534620F00700854688
:1002300018B020B5FFF7B6FFBDE820404FF000062C
:100240004FF000074FF000084FF0000B21F00701BE
:10025000AC46ACE8C009ACE8C009ACE8C009ACE801
:10026000C0098D46704710B50446AFF300802046A4
:10027000BDE81040FFF781BF00487047A000002094
:1002800001491820ABBEFEE7260002007047FEE7DA
:10029000704772B6FEE7000070B5044600F004F93E
:1002A0000546601C02D004480078044400F0FCF8C5
:1002B000401BA042FAD370BD000000202DE9F84F8A
:1002C000DFF8B8910024A9F1040B23460F2709F1A8
:1002D000040AABF1040EC9E00125A5402A40AA4258
:1002E0007DD1674ED1F804C0ACEB0608B44532D0DE
:1002F00014DCBCF1030F3AD009DCBCF1000F2AD0AA
:10030000BCF1010F1CD0BCF1020F31D11DE0BCF1DA
:10031000110F17D0BCF1120F2AD119E0B8F5881FC0
:1003200019D006DCB8F5803F15D0B8F5801F1FD175
:1003300011E0B8F5001F0ED0B8F5041F18D10AE07F
:10034000CB6815E0CB681B1D12E0CB6808330FE0CB
:10035000CB680C330CE08B682BB1012B4FF00803FA
:1003600003D0456104E0042302E0056100E00023BE
:10037000FF2A01D8064601E000F104064FEA840591
:1003800001D9A5F12005D6F8008007FA05FC28EA76
:100390000C0803FA05F548EA0508C6F800804D6820
:1003A000ED0062D5374DAE6946F00106AE61AD692C
:1003B00024F0030605F001050095334D06EB050C0E
:1003C000DCF80850A607360F07FA06F825EA0805F4
:1003D000DFF8B880404503D14FF0000817E044E053
:1003E000DFF8AC80404502D14FF001080FE0DFF8A4
:1003F000A480404502D14FF0020808E0DFF8988061
:10040000404502D14FF0030801E04FF0040808FA1C
:1004100006F848EA0508CCF808804D68D9F800606D
:10042000ED024D4601D5164300E096432E604D681F
:10043000DAF80060AD02554601D5164300E0964358
:100440002E604D68DBF80060AD035D4601D51643B4
:1004500000E096432E604D68DEF80060ED037546BF
:1004600001D5164300E096432E60641C0D682A46B1
:10047000E5407FF431AFBDE8F88F0000080401408B
:10048000000011100010024000000140000801406F
:10049000000C014000100140001401400AB101614C
:1004A00070470904FBE700000148806870470000BE
:1004B0000000002002488168027811448160704782
:1004C00000000020074810B5016841F010010160EC
:1004D000032000F075F80F2000F006F800F024F873
:1004E000002010BD0020024070B50D4D04464FF4B1
:1004F0007A712878B1FBF0F00A490968B1FBF0F095
:1005000000F0BCFA48B9102C07D200222146501E38
:1005100000F036F800206C6070BD012070BD000056
:10052000000000200C0000200C4808B5816941F053
:1005300001018161816901F001010091C16941F00E
:100540008051C161C06900F080500090044841684A
:1005500021F0E06141F00071416008BD00100240EF
:1005600000000140002809DB00F01F02012191403A
:100570004009800000F1E020C0F800117047000041
:10058000F0B40E4B1B680C46C3F30223C3F10705FE
:10059000042D00D90425191D072901D2002300E0EC
:1005A000DB1E012606FA05F1491E214099409E40B6
:1005B000761E16403143F0BC01F022B90CED00E08C
:1005C000064900F0070208684FF6FF03184040EAAA
:1005D0000220034A10430860704700000CED00E061
:1005E0000000FA052DE9F0470F46050061D0434EA3
:1005F000306800F00700B84209D2306820F00700E8
:1006000038433060306800F00700B84251D12868A4
:100610003B4C810712D5400703D5606840F4E06089
:1006200060602878000703D5606840F4605060601F
:100630006068A96820F0F000084360602878C0076F
:1006400028D06868012810D02168022810D08907B6
:1006500000292EDA616821F0030101436160FFF790
:1006600023FF804641F288390DE021688903EFE7D6
:100670008901EDE7FFF718FFA0EB0801494502D912
:100680000320BDE8F0876068696800F00C00B0EBFB
:10069000810FEFD1306800F00700B8420BD9306805
:1006A00020F0070038433060306800F00700B8429F
:1006B00001D00120E5E72878400705D56068E968A2
:1006C00020F4E060084360602878000706D5606881
:1006D000296920F4605040EAC100606000F018F819
:1006E0006168084AC1F30311515CC84006490860BB
:1006F00006480068FFF7F8FE0020C2E7002002402D
:1007000000100240E22000080C000020040000203D
:100710000E4A51680E4801F00C03042B11D0082B2F
:100720000FD10C48C1F38343C903C05C0AD551689B
:10073000084AC1F34041921E515C054A5043B0FB48
:10074000F1F0704704494843704700000010024030
:1007500000127A00D220000800093D002DE9F84F70
:10076000040070D02078C04DC00749D06868C0F33D
:100770008100012807D06868C0F38100022809D1F0
:100780006868C00306D52868800339D560680028EA
:10079000E7D035E06068B0F5803F0BD010B1B0F520
:1007A000A02F11D0286820F480302860286820F419
:1007B000802002E0286840F480302860606890B1B2
:1007C000FFF772FE06460AE0286840F480202860A1
:1007D000F0E700BFFFF768FE801B642873D8286825
:1007E0008003F7D50CE0FFF75FFE064605E000BF8B
:1007F000FFF75AFE801B6428F0D828688003F7D4DE
:1008000020789A4E80074FF001094FF0000839D543
:10081000686810F00C0F07D06868C0F381000228E8
:1008200009D16868C00306D42868800714D52069F8
:10083000012808D110E02069B0B1C6F80090FFF798
:1008400033FE074605E00AE1FFF72EFEC01B022833
:10085000C4D828688007F7D52868616920F0F800B7
:1008600040EAC10028600DE0C6F80080FFF71CFEDA
:10087000074604E0FFF718FEC01B022823D82868AB
:100880008007F7D4207800072CD57948A169D9B121
:10089000C0F80090FFF708FE074604E0FFF704FEEB
:1008A000C01B02280FD8686A8007F7D571484FF43B
:1008B000FA510068B0FBF1F0009000BF0098411EB3
:1008C0000091FAD20EE080E0C0F80080FFF7ECFD66
:1008D000074604E0FFF7E8FDC01B022875D8686AE8
:1008E0008007F7D42078400760D5E8690027C0006A
:1008F00008D4E86940F08050E861E869012700F019
:10090000805000905C480168C90513D40168834693
:1009100041F480710160FFF7C7FD824606E000BF29
:10092000FFF7C2FDA0EB0A0064284ED8DBF80000F8
:10093000C005F5D5E06801280AD008B1052813D014
:10094000286A20F001002862286A20F0040002E0F2
:10095000286A40F001002862E06841F2883B98B1C3
:10096000FFF7A2FD82460BE0286A40F004002862EF
:10097000EEE700BFFFF798FDA0EB0A0159455AD8F2
:10098000286A8007F6D50CE0FFF78EFD824605E069
:10099000FFF78AFDA0EB0A0159454CD8286A800769
:1009A000F6D41FB1E86920F08050E861E06988B3AF
:1009B0006968C1F38101022944D00228C6F8608029
:1009C00004D0FFF771FD044638E034E0FFF76CFD1A
:1009D000074604E0FFF768FDC01B02282BD82868F3
:1009E0008001F7D4206AB0F5803F05D16868A1681E
:1009F00020F4003008436860D4E9080108436968BE
:100A000021F4741108436860C6F86090FFF74CFD4C
:100A1000044606E025E000BFFFF746FD001B022864
:100A200009D828688001F7D51BE000BFFFF73CFD1F
:100A3000001B022802D90320BDE8F88F2868800136
:100A4000F4D40EE00128F7D06868226A00F48031FF
:100A5000914204D1616A00F47010884201D00120F3
:100A6000EAE70020E8E700000010024000004242F0
:100A7000800442420C0000200070004010B5401E6F
:100A8000B0F1807F01D3012010BD4FF0E024606100
:100A90000F21601700F0B4FE0020A0610720206144
:100AA000002010BD7047704770B590F83C20012AB7
:100AB00026D0012480F83C40022280F83D200368C3
:100AC0005A689D6822F070060A6832435A600D4BDE
:100AD00002689A4208D0B2F1804F05D00A4B9A4280
:100AE00002D00A4B9A4204D1496825F08003194389
:100AF000916080F83D40002180F83C10084670BDB0
:100B0000022070BD002C014000040040000800409D
:100B100010B5040003D094F83D0010B107E00120A7
:100B200010BD002084F83C00204600F01FF8022091
:100B300084F83D00211D206800F0FEFC012084F8AF
:100B4000460084F83E0084F83F0084F8400084F8B2
:100B5000410084F8420084F8430084F8440084F89B
:100B6000450084F83D00002010BD000000B585B0B0
:100B70000021009101910291039101681C48B1F19B
:100B8000804F0CD01B4A914207D1C16941F002014C
:100B9000C161C06900F00200049005B000BDC169E8
:100BA00041F00101C161C16901F001010491816954
:100BB00041F0080181618069694600F008000490F5
:100BC000082000900C48FFF779FB0C48416821F49D
:100BD000407141F0E06141F48071416000221146B2
:100BE0001C20FFF7CDFC1C20FFF7BCFCD5E7000064
:100BF0000010024000040040000C014000000140D1
:100C000090F83D10012901D001207047022180F8A1
:100C10003D100168CA6842F00102CA6000680B49D1
:100C2000884208D0B0F1804F05D00949884202D0EF
:100C30000849884204D1816801F00701062903D0E0
:100C4000016841F00101016000207047002C014063
:100C5000000400400008004070B5044690F83C00D5
:100C60000025012817D0012684F83C60022084F872
:100C70003D002068826822F0770222F47F42826081
:100C80000868502838D00DDC20284FD005DC90B300
:100C9000102811D14AE0022070BD302846D04028EB
:100CA0000AD13BE060282FD070280DD0B0F5805FCE
:100CB00003D0B0F5005F12D0012584F83D6000201C
:100CC00084F83C00284670BDCB68D1E9012120683A
:100CD00000F075FC2068816841F0770109E0CB687D
:100CE000D1E90121206800F06AFC2068816841F4A4
:100CF00080418160E1E719E0CA684968206800F036
:100D000013FD5021206806E0CA684968206800F099
:100D100049FD6021206800F05CFCCEE7CA684968A4
:100D2000206800F001FD40212068F4E722680146B8
:100D30001046F0E770472DE9F041054690F83C0079
:100D400000260C46012810D0012085F83C0072B125
:100D5000042A1CD0082A2CD00C2A50D001260020AE
:100D600085F83C003046BDE8F0810220FBE7D4E97D
:100D70000012E368286800F0E9FC2868816921F026
:100D80000C01816128688169A26811430FE0D4E9F0
:100D90000012E368286800F017FD2868816921F4D3
:100DA0004061816128688169A26841EA022181610C
:100DB000D5E72868D4E9002C277B036A016A21F46F
:100DC00080710162C16923F4007321F0030141EADB
:100DD0000C0121F0F00C39074FF400774CEA116157
:100DE00007EA02221A43C16102622868C16921F040
:100DF0000C01C1612868C169A26811432BE0286811
:100E0000D4E90021E768036AD0F820C02CF4805CA4
:100E1000C0F820C0D0F81CC023F400532CF4407C50
:100E20004CEA012121F4704C4FF6FF7101EA0731C1
:100E30004FF4005741EA0C0107EA02321A43C1613C
:100E400002622868C16921F44061C1612868C169F2
:100E5000A26841EA0221C16181E710B5040003D014
:100E600094F83D0010B107E0012010BD002084F887
:100E70003C00204600F01EF8022084F83D00211DB1
:100E8000206800F059FB012084F8460084F83E00F9
:100E900084F83F0084F8400084F8410084F8420060
:100EA00084F8430084F8440084F8450084F83D0049
:100EB000002010BD704770B50446006801694FF00E
:100EC0000005C943890715D4C168C943890711D4EE
:100ED000E91E016101202077206880698007204693
:100EE00002D0FFF727FF04E000F0D0F8204600F022
:100EF00062F9257720680169C943490717D4C16899
:100F0000C943490713D46FF004010161022020771F
:100F10002068806910F4407F204602D0FFF70AFF66
:100F200004E000F0B3F8204600F045F9257720688A
:100F30000169C943090716D4C168C943090712D416
:100F40006FF008010161042020772068C0698007E4
:100F5000204602D0FFF7EEFE04E000F097F82046AE
:100F600000F029F9257720680169C943C90617D41B
:100F7000C168C943C90613D46FF01001016108208C
:100F800020772068C06910F4407F204602D0FFF728
:100F9000D1FE04E000F07AF8204600F00CF9257745
:100FA00020680169C943C90708D1C168C943C90795
:100FB00004D1891E0161204600F04CF920680169C6
:100FC000C943090609D4C168C943090605D46FF0AD
:100FD000800101612046FFF765FD20680169C94372
:100FE000490609D4C168C943490605D46FF04001D8
:100FF0000161204600F02FF920680169C943890684
:101000000BD4C168C943890607D46FF02001016180
:101010002046BDE87040FFF746BD70BD10B586B0F4
:1010200000210091019102910391006813498842C7
:1010300021D11348816941F004018161816901F086
:1010400004010491816941F00801816180690224F1
:1010500000F0080004904020CDE9000469460948EA
:101060000394FFF72BF90320CDE9000469460648F5
:101070000394FFF723F906B010BD00000004004000
:101080000010024000080140000C0140704770B59C
:10109000044690F83C0000260D4601280FD00120A0
:1010A00084F83C006AB1042A1DD0082A2FD00C2AEB
:1010B0003FD00126002084F83C00304670BD02205D
:1010C00070BD206800F08EFA2068816941F0080147
:1010D00081612068816921F0040181612068816952
:1010E0002A69114311E0206800F0A4FA20688169A0
:1010F00041F4006181612068816921F4806181612E
:10110000206881692A6941EA02218161D2E7206869
:1011100000F0BCFA2068C16941F00801C161206893
:10112000C16921F00401C1612068C1692A691143C4
:1011300011E0206800F0D6FA2068C16941F400612E
:10114000C1612068C16921F48061C1612068C16901
:101150002A6941EA0221C161ACE710B5040003D05D
:1011600094F83D0010B107E0012010BD002084F884
:101170003C00204600F01EF8022084F83D00211DAE
:10118000206800F0D9F9012084F8460084F83E0078
:1011900084F83F0084F8400084F8410084F842005D
:1011A00084F8430084F8440084F8450084F83D0046
:1011B000002010BD7047704710B50446022249B1A7
:1011C00004290ED0082913D094F84100012816D024
:1011D000012010BD94F83E000128F9D184F83E208A
:1011E0000FE094F83F000128F2D184F83F2008E096
:1011F00094F840000128EBD184F8402001E084F805
:1012000041200122206800F0CDF90F492068884272
:1012100003D1426C42F4004242642068884208D004
:10122000B0F1804F05D00949884202D00849884270
:1012300004D1816801F00701062903D0016841F05B
:1012400001010160002010BD002C0140000400409D
:101250000008004070477047FEE700002DE9F043AA
:1012600085B000242148009401940294039481697C
:1012700041F020018161816901F0200104918169BF
:1012800041F004018161816901F0040104918169E7
:1012900041F0080181618069DFF8548000F00800A6
:1012A00048F2BE050490002229464046FFF7F6F8B2
:1012B000DFF840904FF40077002239464846FFF7A8
:1012C000EDF80095022601250396CDE90154694603
:1012D0004046FEF7F3FF00970396CDE901546946B7
:1012E0004846FEF7EBFF05B0BDE8F0830010024072
:1012F00000080140000C014010B58AB000242848C5
:101300000494059406940794089409940094019415
:1013100002944FF08041039401604721C0E9011419
:101320004FF6FF71C0E9031480218161FFF7F0FBE4
:1013300008B1FEF7AEFF4FF48050049004A918489E
:10134000FFF78AFC08B1FEF7A4FF1548FFF785FDFB
:1013500008B1FEF79EFF089408A911480994FFF709
:10136000A3FB08B1FEF795FF02200090CDE9010430
:10137000002269460A480394FFF7DDFC08B1FEF736
:1013800088FF0120CDE90040042269460448FFF7A8
:10139000D2FC002801D0FEF77CFF0AB010BD00008F
:1013A0001000002010B58EB0002407940894099412
:1013B0000A940B941C2168460C94FEF705FF2748FD
:1013C000254901603B21C0E9011445F6BF51C0E940
:1013D000031480218161FFF79BFB08B1FEF759FFE1
:1013E0004FF48050079007A91C48FFF735FC08B15F
:1013F000FEF74FFF1948FFF7B0FE08B1FEF749FFAF
:101400000B940BA915480C94FFF74EFB08B1FEF79F
:1014100040FF6020CDE900040294002269460F4895
:101420000494FFF734FE08B1FEF733FF0822694643
:101430000A48FFF72CFE08B1FEF72BFF0C22694685
:101440000648FFF724FE08B1FEF723FF0348FFF725
:10145000E5FD0EB010BD0000000400405800002063
:10146000FEE7FEE77047000070B505460C461046E3
:1014700000F033FC00260E4B324600F0A9FA0D4A6C
:101480000D4B00F0FDF90D4B324600F039FC00F039
:10149000F7FB82B228682CB1042C05D0082C05D0AB
:1014A000026470BD426370BD826370BDC26370BD73
:1014B00000209C409A9999999999993FC06FD7407B
:1014C000FFF77ABE7047FEF7F5BF30B58FB0282121
:1014D0006846FEF779FE14210AA8FEF775FE012181
:1014E0000804CDE900100024029402250491CDE9FE
:1014F00007504FF4E01009906846FFF72FF908B144
:1015000072B6FEE70F20CDE90A054FF48060CDE901
:101510000C4002210AA80E94FFF764F8002801D0BD
:1015200072B6FEE70FB030BD704700000148FFF70C
:10153000C2BC000010000020F0B50268164B174C2A
:10154000174D4FF08047984205D0B84203D0A042D3
:1015500001D0A84203D122F070064A683243984273
:1015600005D0B84203D0A04201D0A84203D122F452
:101570004074CA6822434C6922F080022243026010
:101580008A68C2620A688262984201D1096901636D
:1015900001214161F0BD0000002C01400004004029
:1015A0000008004010B501F01F030121046A9940B2
:1015B0008C430462016A9A401143016210BD10B568
:1015C000846842EA032224F47F440A43224382606F
:1015D00010BD826822F070020A4342F00701816068
:1015E0007047000030B5036A026A22F0010202620D
:1015F0004268846924F073050C682C4323F00205CB
:101600008B682B430A4DA8420BD123F00805CB6809
:1016100022F440722B434D6923F0040315438A6979
:101620002A434260846149684163036230BD00001F
:10163000002C014030B5026A036A23F010030362F4
:10164000436884690D6824F4E64444EA05248D68FF
:1016500022F0200242EA05120B4DA8420ED1CD68BD
:1016600022F0800242EA05124D6923F4406343EA06
:1016700085038D6922F0400243EA8503436084615B
:1016800049688163026230BD002C014030B5036AB5
:10169000026A22F4807202624268C46923F4007311
:1016A00024F073050C682C438D6843EA05230C4D28
:1016B000A8420ED1CD6823F4006343EA05234D69A7
:1016C00022F4405242EA05128D6923F4806342EA13
:1016D00005124260C4614968C163036230BD000005
:1016E000002C014030B5046A026A22F48052026282
:1016F0004268C3690D6823F4E64343EA05238D6815
:1017000024F4005444EA0534064DA84204D14D693E
:1017100022F4804242EA85124260C3614968016452
:10172000046230BD002C014010B5036A046A24F045
:1017300001040462846924F0F00444EA021423F0F2
:101740000A020A438461026210BD000070B5056A96
:10175000046A24F00104046284690F4EB04208D088
:10176000B0F1804F05D00D4EB04202D00C4EB042C9
:1017700003D124F00304144301E044F001041A07E8
:1017800024F0F00444EA126225F00A0301F00A0191
:1017900019438261016270BD002C014000040040C9
:1017A0000008004010B5036A046A24F010040462C3
:1017B000846923F0A00324F4704444EA023243EA2B
:1017C00001118261016210BD30B5046A056A25F01D
:1017D00010050562856925F4407545EA022222F468
:1017E00070454FF6FF7202EA033224F0A0032A4349
:1017F000A02404EA011119438261016230BDFEE7B1
:101800000907090E002804DB00F1E02080F800142D
:10181000704700F00F0000F1E02080F8141D7047C1
:10182000FEF750FEFFF751FEFFF718FDFFF764FDCE
:10183000FFF7B8FD1048FFF7E3F900210F48FFF765
:101840003FFE0024641CA4B2224600210B48FFF78F
:101850000BFE0A20FEF720FDB42CF3D309E0641E32
:10186000A4B2224600210548FFF7FEFD0A20FEF73C
:1018700013FD002CE6D0F2E71000002058000020F5
:1018800010B591EA030F48BF83F0004300F13E8397
:10189000841A71EB030C05D2121943EB0C03001BE5
:1018A00061EB0C01DFF824E14FEA1154A4EB135C67
:1018B0001EEA430F18BF9EEA445F73D023EA0E036B
:1018C000DCF1200E21EA045143F4801332D322FAD2
:1018D0000CFE10EB0E0023FA0CFE41EB0E01CCF1D6
:1018E000200E03FA0EFE10EB0E0051F10001B1F5CF
:1018F000801FCCF1200E32D201EB045112FA0EF20D
:10190000BDE8104058BF7047401C38BF5FEA420234
:1019100018BF7047002814BF20F0010041F10001FA
:101920004FEA410313F5001F38BF7047A1F1C041D2
:1019300000F0DEBA012A43EB0302ACF1200CDCF12B
:101940001F0E32BF4FF0000E23FA0CF310EB030012
:1019500041EB0451B4EB115FD0D0A1EB045101F580
:10196000801149085FEA300001EB04510ED350F1B9
:10197000000038BF12FA0EFE08D1BDE81040C9E7DA
:10198000401C38BF5FEA4202CAD1C3E7BDE810403D
:101990004FEA410313F5001F38BF7047A1F1C04162
:1019A00000F0A6BA9EEA445F08D011EA5E0FBDE8D7
:1019B000104004BF01F0004100207047BDE8104016
:1019C00070B500F047FA00BF64FBBE3E0000E0FFC8
:1019D0002DE9C04130B4DFF8A0C23CEA111418BFB1
:1019E0003CEA131400F0EC8081EA03051CEA1114B0
:1019F00044EAD57418BF1CEA131500F0C780A4EBA5
:101A000005044FF0004545EAC12145EAC32341EAF8
:101A1000505143EA525304F17F74994204F5003463
:101A20004FEAC0204FEAC22208BF904200F09C80DB
:101A30004FEA13650FF24016765D4FEA134506FB39
:101A400005F7C7F1807706FB07F74FEAD737A7FB03
:101A500003687642C8F58038A7FB06CE38BFA8F1E8
:101A6000010807FB08E64FF0000EA6FB028CE6FB20
:101A700003CEDCF1000CCEF1004E38BFAEF1010E0A
:101A8000A6FB0C584FF000074FF00005E6FB0E8751
:101A9000A1FB08C6A0FB07CE16EB0E0645F100051C
:101AA000E1FB076515F1E04E7EBFA4F580345FEAE7
:101AB00046066D4116F1800745F100054FEA1727EC
:101AC0004FEA066647EA0567A6F1DE46B6F1805F93
:101AD0004FEA15251FD9384624F0010C05EBC471D7
:101AE000BCF1FE6F01EB0C1102D8F0BCBDE8008127
:101AF00024425CBF01F5801E9EEAC47F02D4F0BC84
:101B0000BDE80081244238D4F0BCA1F1C041BDE859
:101B1000004100F0EDB94FEAD22242EA43524FEAC7
:101B2000D323A7FB02864FEAD02040EA415007FBAF
:101B300003661EEA0E0F4FEAD12105FB026658BF6D
:101B4000A6EB0056B6EB00564FEA520E4EEAC37EA5
:101B500018EB0E0E56EB530EBDD518EB02085E4186
:101B60007F1C55F10005B6E74FF480154FF00007D4
:101B70004FF000064FF00008ADE7F0BC4FF000005A
:101B800001F1C04101F00041BDE8008111EA0C1FE4
:101B90000CEA131500D00CE013EA0C1F00F02580AE
:101BA0004FF00000F0BC81EA030101F00041BDE804
:101BB0000081F0BCBDE8004181EA030100F098B962
:101BC000F0BCBDE8004170B500F044F9097EFC3E70
:101BD00000F007B881EA03014FF0000001F0004176
:101BE000704781EA030100F083B9F0BCBDE8004111
:101BF0004FF0000021497047FFFDFBF9F7F5F4F2C3
:101C0000F0EEEDEBE9E8E6E4E3E1E0DEDDDBDAD897
:101C1000D7D5D4D3D1D0CFCDCCCBCAC8C7C6C5C4F5
:101C2000C2C1C0BFBEBDBCBBBAB9B8B7B6B5B4B30C
:101C3000B2B1B0AFAEADACABAAA9A8A8A7A6A5A4F7
:101C4000A3A3A2A1A09F9F9E9D9C9C9B9A999998BB
:101C50009797969595949393929191908F8F8E8E5E
:101C60008D8C8C8B8B8A89898888878786858584EB
:101C700084838382828181800000FF070000F87FD7
:101C80004FEA1153A3F58063D3F11E03A8BFD3F12C
:101C9000200C08DB4FF0004242EAC12252EA5052C7
:101CA00032FA03F0704709420BD4102BC4BF002056
:101CB000704703F5787CBCF1FF3F05D04FF0FF3053
:101CC00070474FF00000704770B500F0C3F800BFD8
:101CD0004992248000207047F0E7B0FA80F310FAB0
:101CE00003F10AD0C3F11D0303F580634FEA4150AD
:101CF0004FEA035202EBD12170474FF000007047CA
:101D0000DFF848C170B51CEA111E1EBF1CEA13158E
:101D10009EEA0C0F95EA0C0F00F06F8081EA030435
:101D200023EA4C134EEAD47E21EA4C1141F480118F
:101D300043F48013AE44A1FB024CA0FB0365AEF15B
:101D40007F7E361955EB0C05A1FB034C4CF10003CB
:101D5000A0FB021C16EB0C06654153F1000309427F
:101D600018BF46F0010613F4007F0BD14FEA033190
:101D70004FEA0530340341EA155140EA16506FF03E
:101D800003020AE04FEAC3214FEAC520F40241EA08
:101D9000555140EA56506FF0020202EB2E4201EB21
:101DA000025585EACE710AD05FEA440C18BF24F0D0
:101DB000004450F1000041F1000120EAD47040F2EB
:101DC000FE7C624500D270BDA84214BF4FF0804433
:101DD0004FF04044002E08BF0024BEF1806FA8BF22
:101DE000A1F1C041BDE8704080F282804FF0000058
:101DF00001F1C04101F0004170479EEA0C0F0CEA6E
:101E0000131518BF95EA0C0F06D04FF0000081EAB9
:101E1000030E0EF0004170BD00F01CF88900013E79
:101E200000F007B800F009B84FEA430C5FEA5C5CC9
:101E300008D081EA030100F05BB84FEA410C5FEA89
:101E40005C5CF6D14FF00000014970470000FF07CD
:101E50000000F87F0EF1020E2EF0030E5EF8046B08
:101E6000364205D4012A43EB030515F5001F12D8AD
:101E7000012841EB010C1CF5001F0CD80ED14FEAD4
:101E8000D17C15F5001F0CEB4C0C0CF1020C08BFBB
:101E90004CEBD37C04E04FF0080C01E04FEAD37C1C
:101EA0000CEB4C0526FA05F606F00706B6F1040C15
:101EB00006D20EEB860CBDE870404CF0010C60477A
:101EC000DFE80CF0090B02024FF000414FF0000078
:101ED000A1F5002170BD19461046012851EB0104FF
:101EE00018BFD4F5001484BF002001F0004170BD7C
:101EF0000808A0F500114FEA3101704710B591EACA
:101F0000030F48BF83F000433FF5C2AC841A71EB66
:101F1000030C07D212198CF0004C43EB0C03001B8E
:101F200061EB0C01DFF8A4E14FEA1154A4EB135C60
:101F30001EEA430F18BF9EEA445F00F0B08023EA18
:101F40006E03524221EA0451C3EB6E0338BF5B1E9D
:101F5000DCF1200E25D322FA0CFE10EB0E0043FA22
:101F60000CFE41EB0E01CCF1200E03FA0EFE10EB3D
:101F70000E0051F10001CCF1200E29D412FA0EF21C
:101F800001EB0451BDE8104058BF7047401C1CBF16
:101F9000B2F1004F704700280CBF491C20F001002F
:101FA000704712EB020E43EB030218BF4FF0010E15
:101FB0004EEA4202ACF1200CDCF11E0E54D943FA79
:101FC0000CFE10EB0E0051F1FF31CCF11E0ED5D5F9
:101FD0000EF1010E12FA0EFE404141EB010101EB40
:101FE000445C5FEA5C5C10D910EBDE7001EB0451DD
:101FF00038BFBEF1004FBDE8104018BF7047002841
:102000000CBF491C20F00100704730D24FEAD42C9D
:1020100011F5001124F400641BD0B1FA81F20B3ADF
:10202000A41AA41ED2F12003914030FA03F31943FD
:10203000904001EBCC71002C01EB0451BDE8104045
:10204000A8BF704701F1C0414FF0000001F000410E
:102050007047B0FA80F310FA03F100D110BDE41A12
:10206000173C4805C90AE4E701EB045110BD4910CB
:1020700001EB0451BDE810404FEA300002E04FF0A0
:10208000000170474A0008BF0042F8D0B2F5001FB7
:1020900028BF704701F000414FF0000070479EEAF2
:1020A000445F07D011EA5E0FBDE8104004BF002175
:1020B00000207047BDE8104070B5FFF7CBFE00BFB1
:1020C00040DFF63E83F00041104670470000E0FF1D
:1020D000010202030405060708090A0B0C0D0E0F86
:1020E00010100000000000000000010203040607B9
:1020F0000809000014210008000000201000000062
:10210000280100082421000810000020F00600002B
:102110004401000801000000100000000000000061
:042120000024F400A3
:04000005080000ED02
:00000001FF
