:020000040800F2
:10000000B0200020C90100083F3200084F2B000833
:100010003D320008030400086F570008000000008C
:10002000000000000000000000000000FF38000891
:10003000FB04000800000000F9380008013900083E
:10004000E3010008E3010008E3010008E301000800
:10005000E3010008E3010008E3010008E3010008F0
:10006000E3010008E3010008E3010008E3010008E0
:10007000E3010008E3010008B9040008C504000812
:10008000E3010008E3010008E3010008E3010008C0
:10009000F9560008E3010008E3010008E301000845
:1000A000E3010008E3010008E3010008E3010008A0
:1000B000293A0008E3010008E3010008E301000811
:1000C000E3010008E3010008E3010008E301000880
:1000D000E30100086D400008E3010008E3010008A7
:1000E000E3010008E3010008E301000800F002F862
:1000F00000F05AF80AA090E8000C82448344AAF168
:100100000107DA4501D100F04FF8AFF2090EBAE865
:100110000F0013F0010F18BFFB1A43F0010318473B
:10012000CC5F0000EC5F00000A444FF0000C10F8B8
:10013000013B13F0070408BF10F8014B1D1108BF65
:1001400010F8015B641E05D010F8016B641E01F805
:10015000016BF9D113F0080F1EBF10F8014BAD1C55
:100160000C1B09D16D1E58BF01F801CBFAD505E073
:1001700014F8016B01F8016B6D1EF9D59142D6D3CD
:10018000704700000023002400250026103A28BFF5
:1001900078C1FBD8520728BF30C148BF0B607047F9
:1001A0001FB51FBD10B510BD00F0F1F81146FFF7E7
:1001B000F7FF05F0EDFA00F00FF903B4FFF7F2FFD7
:1001C00003BC00F017F900000948804709480047C0
:1001D000FEE7FEE7FEE7FEE7FEE7FEE7FEE7FEE7F7
:1001E000FEE7FEE704480549054A064B7047000054
:1001F0007D390008ED000008B01A0020B020002072
:10020000B01C0020B01C0020032A40F2308010F007
:10021000030C00F0158011F8013BBCF1020F6244A1
:1002200098BF11F801CB00F8013B38BF11F8013B32
:10023000A2F1040298BF00F801CB38BF00F8013BDF
:1002400011F0030300F02580083AC0F0088051F84F
:10025000043B083A51F804CBA0E80810F5E7121D5A
:100260005CBF51F8043B40F8043BAFF30080D20779
:1002700024BF11F8013B11F801CB48BF11F8012B45
:1002800024BF00F8013B00F801CB48BF00F8012B68
:10029000704710B5203AC0F00B80B1E81850203AF2
:1002A000A0E81850B1E81850A0E81850BFF4F5AF16
:1002B0005FEA027C24BFB1E81850A0E8185044BFA0
:1002C00018C918C0BDE810405FEA827C24BF51F80D
:1002D000043B40F8043B08BF7047D20728BF31F801
:1002E000023B48BF11F8012B28BF20F8023B48BF52
:1002F00000F8012B70474FF000020429C0F0128073
:1003000010F0030C00F01B80CCF1040CBCF1020FC8
:1003100018BF00F8012BA8BF20F8022BA1EB0C019D
:1003200000F00DB85FEAC17C24BF00F8012B00F893
:10033000012B48BF00F8012B70474FF0000200B5B9
:10034000134694469646203922BFA0E80C50A0E8F8
:100350000C50B1F12001BFF4F7AF090728BFA0E8A6
:100360000C5048BF0CC05DF804EB890028BF40F872
:10037000042B08BF704748BF20F8022B11F0804FB4
:1003800018BF00F8012B70477047704770477546DB
:1003900000F02CF8AE4605006946534620F00700F1
:1003A000854618B020B5FFF71DFFBDE820404FF08F
:1003B00000064FF000074FF000084FF0000B21F04F
:1003C0000701AC46ACE8C009ACE8C009ACE8C0091C
:1003D000ACE8C0098D46704710B50446AFF3008005
:1003E0002046BDE81040FFF7E8BE00000048704717
:1003F0004C1A002001491820ABBEFEE7260002007F
:100400007047FEE7002070470020704710B50022BB
:100410000449054803F04EFF0449034803F044FF34
:10042000002010BD54110020A80800206C0D0020F1
:1004300070B50C46054640210B48FFF75CFF294686
:1004400009482268FFF7E0FE08492088088040211B
:100450002846FFF750FF2946054803F025FF0448CA
:1004600003F006FF002070BD1006002000040020ED
:10047000A80800200E4810B5816986B041F0080137
:10048000816180690B4C00F008000490012000900D
:100490000190032003906946204600F0BBF906B0A6
:1004A00020460122BDE81040114600F0A3BA00002A
:1004B00000100240000C0140014800F09BB8000011
:1004C00000080020014800F095B80000BC0700209B
:1004D00030B590F840500124AC40C56B6C600468A6
:1004E00063604368102B036803D099600068C260A2
:1004F00030BD9A600068C16030BD704701B50348E7
:100500000099016001680029FCD108BD9804002011
:1005100072B6FEE710B590F821100022022905D02E
:100520000421816380F82020012010BD01680B6840
:1005300023F00E030B6001680B6823F001030B60CE
:1005400090F84030C46B012101FA03F3636080F836
:10055000211080F82020104610BD000010B590F842
:1005600021100024022903D00421816301243DE0ED
:1005700001680A6822F00E020A6001680A6822F027
:1005800001020A601A4A0168914201D1012121E069
:10059000174A1432914201D110211BE0144A28322B
:1005A000914201D1891515E0114A3C32914201D1A5
:1005B00089140FE00E4A5032914202D14FF480313B
:1005C00008E00B4A6432914202D14FF4801101E0FD
:1005D0004FF08071064A083A5160012180F82110DD
:1005E000002180F82010416B01B18847204610BDE2
:1005F000080002402DE9F05FC16B0C6801680B68D0
:10060000D0F840C0042202FA0CF2494DDFF824A1D0
:10061000494E4A4FDFF828B1DFF828E122422CD0BA
:100620005A072AD50A68920603D40A6822F00402FF
:100630000A600168A94201D1042219E0514501D1A3
:10064000402215E0B14202D14FF4806210E0B9427D
:1006500002D14FF480420BE0594502D14FF4802281
:1006600006E0714502D14FF4800201E04FF0806254
:100670002F4908394A60C16A3BE04FF0020808FA86
:100680000CF818EA040F4FF000094FF0010235D0C2
:100690005FEA837832D50B689B0605D40B6823F09C
:1006A0000A030B6080F821200168A94201D10222CF
:1006B00019E0514501D1202215E0B14202D14FF499
:1006C000007210E0B94202D14FF400520BE05945DC
:1006D00002D14FF4003206E0714502D14FF400120E
:1006E00001E04FF00072124908394A6080F820900A
:1006F000816A00291AD0BDE8F05F0847082505FA8D
:100700000CF5254212D01B0710D50B6823F00E0301
:100710000B6090F84010C36B02FA01F159608263DC
:1007200080F8212080F82090016BE2E7BDE8F09F7F
:10073000080002401C000240300002404400024019
:10074000580002406C00024030B528B308C8134975
:1007500014221944B1FBF2F18900C163104981638D
:10076000022141771A6843F6F0718A43D0E90014F8
:100770002143D0E902452C432143046921434469C4
:1007800021438469214311431960002141630122FF
:1007900042770177084630BD012030BDF8FFFDBF2C
:1007A0000000024070B5044690F8200000250128A2
:1007B0000CD0012084F8200094F821600020012E44
:1007C00006D084F820000225284670BD022070BDA6
:1007D000022684F82160A0632068066826F00106DE
:1007E00006602046FFF774FEE06A00282068016872
:1007F00002D041F00E0106E021F004010160206802
:10080000016841F00A0101602068016841F00101BE
:100810000160D9E72DE9F84FDFF8B8910024A9F17C
:10082000040B23460F2709F1040AABF1040EC9E0BB
:100830000125A5402A40AA427DD1674ED1F804C0C7
:10084000ACEB0608B44532D014DCBCF1030F3AD04F
:1008500009DCBCF1000F2AD0BCF1010F1CD0BCF1A7
:10086000020F31D11DE0BCF1110F17D0BCF1120FF6
:100870002AD119E0B8F5881F19D006DCB8F5803FF9
:1008800015D0B8F5801F1FD111E0B8F5001F0ED0AC
:10089000B8F5041F18D10AE0CB6815E0CB681B1D22
:1008A00012E0CB6808330FE0CB680C330CE08B68A8
:1008B0002BB1012B4FF0080303D0456104E0042362
:1008C00002E0056100E00023FF2A01D8064601E0AE
:1008D00000F104064FEA840501D9A5F12005D6F8F8
:1008E000008007FA05FC28EA0C0803FA05F548EA37
:1008F0000508C6F800804D68ED0062D5374DAE6939
:1009000046F00106AE61AD6924F0030605F001056D
:100910000095334D06EB050CDCF80850A607360FA2
:1009200007FA06F825EA0805DFF8B880404503D144
:100930004FF0000817E044E0DFF8AC80404502D1FA
:100940004FF001080FE0DFF8A480404502D14FF0DE
:10095000020808E0DFF89880404502D14FF0030814
:1009600001E04FF0040808FA06F848EA0508CCF858
:1009700008804D68D9F80060ED024D4601D5164358
:1009800000E096432E604D68DAF80060AD025546EF
:1009900001D5164300E096432E604D68DBF80060F9
:1009A000AD035D4601D5164300E096432E604D68C9
:1009B000DEF80060ED03754601D5164300E096436E
:1009C0002E60641C0D682A46E5407FF431AFBDE817
:1009D000F88F0000080401400000111000100240D0
:1009E0000000014000080140000C014000100140DF
:1009F000001401400AB1016170470904FBE70000DF
:100A000001488068704700000804002070B50400A9
:100A100025D094F83D00002520B984F83C502046AC
:100A200000F050F9242084F83D002068016821F08E
:100A3000010101602068016841F400410160206803
:100A4000016821F40041016000F0CCFF4D4A61686B
:100A5000914201D84C4900E04C49884201D2012022
:100A600070BD4B492368B0FBF1F15E6826F03F068C
:100A70000E435E606368934206D94FF49673594300
:100A80004FF47A73B1FBF3F12368491C1E6A26F018
:100A90003F06314319626168914210D84900401EF7
:100AA000B0FBF1F2521CC2F30B02042A01D2042063
:100AB00022E0B0FBF1F0401CC0F30B001CE0A26888
:100AC000F2B301EBC10303EB0116431EB3FBF6F3D4
:100AD0005B1C43F480431B0549D092B301EBC10278
:100AE00002EB0111401EB0FBF1F0401CC0F30B0003
:100AF00040F4804040F400402168CA694CF6FF731E
:100B00009A431043C861D4E9071001432068026882
:100B100022F0C00211430160D4E9030101432068BF
:100B2000826848F2FF339A4311438160D4E905019A
:100B300008432168CA6822F0FF021043C86001E040
:100B40000EE016E02068016841F0010101602564B3
:100B5000202084F83D00256384F83E50002070BDBD
:100B600001EB4106431EB3FBF6F35B1CB3E7012028
:100B7000C2E701EB4101401EB0FBF1F0401CC0F3A5
:100B80000B00B7E7A086010080841E0000093D002D
:100B900040420F002DE9FF4F83B09A46DDE91197DF
:100BA00093460446DDF84080FFF72AFF054694F897
:100BB0003D0020287FD1192301224049204600957D
:100BC00002F05EF8002876D194F83C00012872D03B
:100BD000012084F83C0020680168C90703D101683E
:100BE00041F0010101602068016821F400610160A9
:100BF000212084F83D00402084F83E000026266431
:100C0000C4F82480A4F82A90608D20852C48E062E6
:100C1000CDE9007553465A462046049901F0B0FFCD
:100C200070B930E02A463946204602F0CFF858B174
:100C3000206C042804D12068016841F4007101602F
:100C4000012007B0BDE8F08F606A21680078086174
:100C5000606A401C6062218D491E89B22185628DC7
:100C6000521E628522685369DB435B070BD469B16E
:100C700000781061606A401C6062208D401E2085F3
:100C8000608D401E6085208D0028CBD12A463946D4
:100C9000204601F0C9FF0028CAD154F83D0B016875
:100CA00041F400710160202004F81E09E6776677A0
:100CB0000020C6E7FFE70220C3E7000002001000A3
:100CC0000000FFFF10B586B0002100910191029154
:100CD00003910068104988421BD1104CA06940F074
:100CE0000800A061A069694600F0080004904FF474
:100CF0004060009012200190032003900848FFF705
:100D000089FDE06940F48000E061E06900F4800062
:100D1000049006B010BD00000058004000100240D2
:100D2000000C0140024881680278114481607047DC
:100D300008040020074810B5016841F01001016067
:100D4000032000F075F80F2000F006F800F024F8FA
:100D5000002010BD0020024070B50D4D04464FF438
:100D60007A712878B1FBF0F00A490968B1FBF0F01C
:100D700001F00EF848B9102C07D200222146501E6F
:100D800000F036F800206C6070BD012070BD0000DE
:100D900008040020140400200C4808B5816941F0C3
:100DA00001018161816901F001010091C16941F096
:100DB0008051C161C06900F08050009004484168D2
:100DC00021F0E06141F00071416008BD0010024077
:100DD00000000140002809DB00F01F0201219140C2
:100DE0004009800000F1E020C0F8001170470000C9
:100DF000F0B40E4B1B680C46C3F30223C3F1070586
:100E0000042D00D90425191D072901D2002300E073
:100E1000DB1E012606FA05F1491E214099409E403D
:100E2000761E16403143F0BC04F0A2BC0CED00E08D
:100E3000064900F0070208684FF6FF03184040EA31
:100E40000220034A10430860704700000CED00E0E8
:100E50000000FA0510B50C0607D501F0070101EBFB
:100E6000810100EBC100283005E001EB810100EBBE
:100E7000C10000F5B47099B232B101220273018150
:100E8000190C4181002010BD00220273C180F9E7D6
:100E9000704701EB810200EBC202D0F8EC02D26B8A
:100EA00003F0F9BB01EB810200EBC202D0F8EC02C7
:100EB000D2F87C2103F052BC70B504460B0601F059
:100EC000070000EB800104EBC1014FF001024FF07D
:100ED000000503D581F82920283103E081F8695104
:100EE00001F5B471087094F8A802012808D084F8BC
:100EF000A822206804F094F884F8A852002070BD5D
:100F0000022070BD70B5044601F00F006268904287
:100F100001D9012070BD0B0601F0070000EB800134
:100F200004EBC1014FF001024FF0000503D581F839
:100F30002920283103E081F8695101F5B4718D70E1
:100F4000087094F8A802012808D084F8A822206824
:100F500004F003F984F8A852002070BD022070BD8F
:100F60002DE9F05F04685FEA424C0B788D69B4F8B4
:100F700050C04FF000064BF68F7948F2800A48F6D1
:100F80008F7B48F2C00E4FF480672AD54FF00208DD
:100F900008EBC308C44407EB4C07E45BC4F3090443
:100FA000A54203D32D1B8D6101D00BE08E61066835
:100FB00036F8235005EA090585F4005545EA0A0587
:100FC00026F82350520609D50D78036833F82520FA
:100FD00002EA0B0242EA0E0223F8252084B30A89B2
:100FE00029E04FF0060808EBC308C44407EB4C07A0
:100FF000E45BC4F30904A54203D32D1B8D6101D02A
:101000000BE08E61066836F8235005EA090585F481
:10101000005545EA0A0526F82350520609D40B78F4
:10102000056835F8232002EA0B0242EA0E0225F891
:1010300023202CB14A8949690068234604F066FBE5
:101040002046BDE8F09F2DE9F05F054600680C469C
:101050005FEA426C16468B692278B0F850C048F6B9
:101060008F774CF280094FF4004B4FF6FF7E4FF420
:10107000806A4FF0000172D54FF0020808EBC208F9
:10108000E0440AEB480C30F80C00C0F3090083423E
:1010900011D91B1AA3610FD0730407D52E6836F837
:1010A00022303B4043EA090326F8223094F82420FA
:1010B000012A47D052E1A161607810B1012813D014
:1010C0001AE02868B0F85030184400EB0210B0F86D
:1010D0000424C2F30902A0F80424B0F8042442F462
:1010E0000042A0F8042407E02868B0F85030184403
:1010F00000EB0210A0F804146278286812B1012AEB
:1011000011D018E0B0F850100844217800EB01101D
:10111000B0F80C14C1F30901A0F80C14B0F80C14C9
:1011200041F4004105E0B0F850201044227800EB73
:101130000210A0F80C1421782846FFF7AAFE7004CC
:1011400072D40BE1626902446261E2690244E261C5
:101150002369226A9A4203D31846111A04E03EE03A
:1011600084F824100AB110462162617811B1012976
:1011700029D031E02968B1F850201144227801EBE0
:101180000211B1F80424C2F30902A1F8042401F207
:1011900004413E2807D94209C30600D1521E0B88DC
:1011A0004BEA822207E048B14208C30700D0521C34
:1011B0000B880EEA822213430B800DE00A8842F46A
:1011C00000420A8008E02968B1F8502011442278D2
:1011D00001EB0211A1F8040483B22289BAE04FF0B6
:1011E000060808EBC208E0440AEB480C30F80C0093
:1011F000C0F30900834211D31B1AA3610FD07304FB
:1012000007D42E6836F822303B4043EA090326F81B
:10121000223094F82420012A51D09FE0A161607807
:1012200018B1012814D01BE03FE02868B0F8503016
:10123000184400EB0210B0F80424C2F30902A0F82D
:101240000424B0F8042442F40042A0F8042407E087
:101250002868B0F85030184400EB0210A0F80414CD
:101260006278286812B1012A11D018E0B0F8501045
:101270000844217800EB0110B0F80C14C1F3090107
:10128000A0F80C14B0F80C1441F4004105E0B0F8DB
:1012900050201044227800EB0210A0F80C142178A2
:1012A0002846FFF7F6FD700458D42278296831F8F3
:1012B0002200384040EA090021F822004EE062692D
:1012C00002446261E2690244E2612369226A9A424D
:1012D00003D31846111A216204E00AB110462162B4
:1012E00084F824106278296812B1012A28D02FE0EE
:1012F000B1F850201144227801EB0211B1F80C240E
:10130000C2F30902A1F80C2401F20C413E2807D9CE
:101310004209C30600D1521E0B884BEA822207E025
:1013200048B14208C30700D0521C0B880EEA822243
:1013300013430B800CE00A8842F400420A8007E065
:10134000B1F850201144227801EB0211A1F80C04ED
:10135000628983B26169286804F0F6F92278296805
:1013600031F8220048F6BF73184080F0300048F290
:101370008003184321F822000020BDE8F09F01F00F
:10138000070101EB810100EBC100D0F88401704737
:101390002DE9F04104460F0601F0070000EB800143
:1013A00004EBC1014FF001064FF0000503D581F8B1
:1013B0002960283103E081F8695101F5B471022BED
:1013C00008700A61CB7000D10D7194F8A802012851
:1013D00009D084F8A862206803F0D2FC284684F87B
:1013E000A852BDE8F0810220FBE710B501F0070428
:1013F00004EB840100EBC101C1E95F230022C1F8C5
:10140000842181F8692181F86841006801F5B4718F
:1014100003F0F8FE002010BD70B504460D4601F043
:1014200007006168884201D9012070BD29064FF08C
:1014300000064FF0010207D500EB800104EBC1016B
:1014400081F82920283107E005EB850104EBC10173
:1014500081F8696101F5B4718A70087094F8A80286
:10146000012807D084F8A822206803F0B2FE68079C
:1014700002D006E0022070BD04F52C71206803F054
:101480006AFE84F8A862002070BD10B501F0070460
:1014900004EB840100EBC101C1E90F23012281F8B3
:1014A0004C208B6400234B6481F8292001F8284FDD
:1014B000006803F0A7FE002010BD00001FB5044621
:1014C000006804F01FF9010403D5204602F03EF83D
:1014D0001FBD41050DD5206830F8441F21F48061FF
:1014E0000180204600F010F90021204600F027F985
:1014F0001FBD410405D5206830F8441F21F4804108
:1015000074E0810405D5206830F8441F21F40051AF
:101510006CE0C10414D5206830F8401F21F00401AC
:101520000180206830F8401F21F00801018020462A
:1015300000F0FDF8206830F8441F21F4805155E098
:10154000010540D5D4F800200020694632F820304B
:1015500021F81030401CC0B20828F7D332F8400FF1
:1015600040F001001080206830F8402F22F0010286
:1015700002802068B0F844205205FBD530F8442F93
:1015800022F4806202800020236831F8102023F8C2
:101590002020401CC0B20828F6D3206830F8401F35
:1015A00041F008010180206830F8441F21F40061F7
:1015B0000180206830F8401F41F00401018020467E
:1015C00000F0F2F81FBD810509D5206830F8441FEE
:1015D00021F400710180204600F0ADF81FBDC00568
:1015E000FCD5206830F8441F21F4807101801FBDB4
:1015F0002DE9F04186B0040004D094F8A90200253A
:1016000020B108E0012006B0BDE8F08184F8A852BE
:10161000204600F05BF8032084F8A902206803F05C
:1016200093FD04F11001142288466846FEF731FE4E
:1016300094E80F0003F0F2FC0227D0BB00212068E1
:1016400004F07AF8002001260EE000BF00EB8001D4
:1016500004EBC10181F8296001F8280F401CCD700E
:101660000D614D61C0B28D6161688142EED800208C
:1016700012E000BF00EB800104EBC10181F8695169
:1016800081F8680181F86B51C1F87851C1F87C513B
:10169000401CC0B2C1F8805161688142EAD814226E
:1016A00041466846FEF7F5FD94E80F0003F043FD60
:1016B00010B184F8A972A5E784F8245084F8A962CF
:1016C000206803F036FD00209DE7000008B50068A3
:1016D0000B49884212D10B48C16941F40001C16134
:1016E000C069002200F40000009011461420FFF7AA
:1016F0007FFBBDE808401420FFF76CBB08BD00006D
:10170000005C00400010024070B50446806801256E
:10171000022801D0FEF7FCFE2946D4F8EC0203F0C3
:1017200006F9D4F8EC02BDE8704003F0C2B8D0F876
:10173000EC0203F0E6B8D0F8EC0203F0ECB810B518
:10174000044690F8A80201280BD0012084F8A802D2
:1017500084F82410206803F0F1FF002084F8A80228
:1017600010BD022010BDD0F8EC2200F52C711046FF
:1017700003F0E9B810B5044690F8A802012810D08B
:10178000012084F8A802206803F0ADFF0121204663
:10179000FFF77EFB206803F0CAFC002084F8A80253
:1017A00010BD022010BD000010B50446D0F8EC02B8
:1017B00003F008F9A069002804D00348016841F04B
:1017C0000601016010BD000010ED00E02DE9F843B6
:1017D00005460078354CC00754D0E0690026C000AB
:1017E00008D4E06940F08050E061E069012600F033
:1017F000805000902E480168C90512D401688046C7
:1018000041F480710160FFF7FBF8074605E000BF77
:10181000FFF7F6F8C01B642823D8D8F80000C005ED
:10182000F6D5206A10F4407021D0A98801F44071E7
:1018300081421CD0206A1F49012220F440700A60B6
:1018400000220A602062C00711D0FFF7D9F80746CE
:1018500041F2883808E000BFFFF7D2F8C11B4145CC
:1018600002D90320BDE8F883206A8007F4D5206AF6
:10187000696820F44070084320621EB1E06920F0DE
:101880008050E0612878800705D56068A96820F459
:101890004040084360602878C00605D56068E96864
:1018A00020F48000084360600020DBE70010024065
:1018B00000700040400442422DE9F0470F46050009
:1018C00061D0434E306800F00700B84209D230685A
:1018D00020F0070038433060306800F00700B8425D
:1018E00051D128683B4C810712D5400703D5606869
:1018F00040F4E06060602878000703D5606840F439
:10190000605060606068A96820F0F0000843606083
:101910002878C00728D06868012810D021680228DC
:1019200010D0890700292EDA616821F003010143F4
:101930006160FFF765F8804641F288390DE0216863
:101940008903EFE78901EDE7FFF75AF8A0EB0801FB
:10195000494502D90320BDE8F0876068696800F056
:101960000C00B0EB810FEFD1306800F00700B842F7
:101970000BD9306820F0070038433060306800F041
:101980000700B84201D00120E5E72878400705D5D7
:101990006068E96820F4E060084360602878000728
:1019A00006D56068296920F4605040EAC100606093
:1019B00000F038F86168084AC1F30311515CC8406F
:1019C0000649086006480068FFF7C6F90020C2E72C
:1019D0000020024000100240BA5800081404002001
:1019E0000C0400200448054900684968044AC1F312
:1019F0000221515CC84070471404002000100240CE
:101A0000CA5800080448054900684968044AC1F3F7
:101A1000C221515CC84070471404002000100240ED
:101A2000CA5800080E4A51680E4801F00C03042BF6
:101A300011D0082B0FD10C48C1F38343C903C05CFC
:101A40000AD55168084AC1F34041921E515C054ACB
:101A50005043B0FBF1F07047044948437047000021
:101A60000010024000127A00AA58000800093D0048
:101A70002DE9F84F040070D02078C04DC00749D040
:101A80006868C0F38100012807D06868C0F381004E
:101A9000022809D16868C00306D52868800339D5B3
:101AA00060680028E7D035E06068B0F5803F0BD073
:101AB00010B1B0F5A02F11D0286820F48030286034
:101AC000286820F4802002E0286840F480302860F4
:101AD000606890B1FEF794FF06460AE0286840F47B
:101AE00080202860F0E700BFFEF78AFF801B642893
:101AF00073D828688003F7D50CE0FEF781FF06460F
:101B000005E000BFFEF77CFF801B6428F0D8286842
:101B10008003F7D420789A4E80074FF001094FF0E8
:101B2000000839D5686810F00C0F07D06868C0F35A
:101B30008100022809D16868C00306D4286880079C
:101B400014D52069012808D110E02069B0B1C6F889
:101B50000090FEF755FF074605E00AE1FEF750FF4B
:101B6000C01B0228C4D828688007F7D52868616997
:101B700020F0F80040EAC10028600DE0C6F80080BF
:101B8000FEF73EFF074604E0FEF73AFFC01B0228BF
:101B900023D828688007F7D4207800072CD5794807
:101BA000A169D9B1C0F80090FEF72AFF074604E00A
:101BB000FEF726FFC01B02280FD8686A8007F7D5FA
:101BC00071484FF4FA510068B0FBF1F0009000BF8B
:101BD0000098411E0091FAD20EE080E0C0F800802B
:101BE000FEF70EFF074604E0FEF70AFFC01B0228BF
:101BF00075D8686A8007F7D42078400760D5E8690F
:101C00000027C00008D4E86940F08050E861E86926
:101C1000012700F0805000905C480168C90513D48A
:101C20000168834641F480710160FEF7E9FE824657
:101C300006E000BFFEF7E4FEA0EB0A0064284ED8E1
:101C4000DBF80000C005F5D5E06801280AD008B12E
:101C5000052813D0286A20F001002862286A20F0A5
:101C6000040002E0286A40F001002862E06841F2C6
:101C7000883B98B1FEF7C4FE82460BE0286A40F02C
:101C800004002862EEE700BFFEF7BAFEA0EB0A01EF
:101C900059455AD8286A8007F6D50CE0FEF7B0FE01
:101CA000824605E0FEF7ACFEA0EB0A0159454CD890
:101CB000286A8007F6D41FB1E86920F08050E861F7
:101CC000E06988B36968C1F38101022944D0022820
:101CD000C6F8608004D0FEF793FE044638E034E096
:101CE000FEF78EFE074604E0FEF78AFEC01B0228C0
:101CF0002BD828688001F7D4206AB0F5803F05D141
:101D00006868A16820F4003008436860D4E90801DD
:101D10000843696821F4741108436860C6F860904C
:101D2000FEF76EFE044606E025E000BFFEF768FE03
:101D3000001B022809D828688001F7D51BE000BFE6
:101D4000FEF75EFE001B022802D90320BDE8F88FD3
:101D500028688001F4D40EE00128F7D06868226A70
:101D600000F48031914204D1616A00F4701088421D
:101D700001D00120EAE70020E8E70000001002405F
:101D800000004242800442421404002000700040DF
:101D900010B5401EB0F1807F01D3012010BD4FF07F
:101DA000E02460610F21601703F0E2FC0020A061D5
:101DB00007202061002010BD7047704770B590F873
:101DC0003C20012A26D0012480F83C40022280F8E1
:101DD0003D2003685A689D6822F070060A68324305
:101DE0005A600D4B02689A4208D0B2F1804F05D07C
:101DF0000A4B9A4202D00A4B9A4204D1496825F014
:101E000080031943916080F83D40002180F83C1028
:101E1000084670BD022070BD002C01400004004047
:101E20000008004010B5040003D094F83D0010B144
:101E300007E0012010BD002084F83C00204600F09F
:101E40001FF8022084F83D00211D206801F0F2FDFA
:101E5000012084F8460084F83E0084F83F0084F8AE
:101E6000400084F8410084F8420084F8430084F87C
:101E7000440084F8450084F83D00002010BD0000B7
:101E800000B585B000210091019102910391016894
:101E90001C48B1F1804F0CD01B4A914207D1C16957
:101EA00041F00201C161C06900F00200049005B078
:101EB00000BDC16941F00101C161C16901F00101C9
:101EC0000491816941F0080181618069694600F0EF
:101ED00008000490082000900C48FEF79BFC0C487A
:101EE000416821F4407141F0E06141F4807141604A
:101EF000002211461C20FEF77BFF1C20FEF76AFF24
:101F0000D5E700000010024000040040000C014032
:101F10000000014090F83D10012901D001207047D8
:101F2000022180F83D100168CA6842F00102CA60CF
:101F300000680B49884208D0B0F1804F05D00949AC
:101F4000884202D00849884204D1816801F0070123
:101F5000062903D0016841F00101016000207047AB
:101F6000002C0140000400400008004070B5044609
:101F700090F83C000025012817D0012684F83C6029
:101F8000022084F83D002068826822F0770222F463
:101F90007F4282600868502838D00DDC20284FD05E
:101FA00005DC90B3102811D14AE0022070BD302822
:101FB00046D040280AD13BE060282FD070280DD0B1
:101FC000B0F5805F03D0B0F5005F12D0012584F832
:101FD0003D60002084F83C00284670BDCB68D1E904
:101FE0000121206801F069FD2068816841F07701D6
:101FF00009E0CB68D1E90121206801F05EFD20688D
:10200000816841F480418160E1E719E0CA6849686C
:10201000206801F007FE5021206806E0CA68496880
:10202000206801F03DFE6021206801F050FDCEE700
:10203000CA684968206801F0F5FD40212068F4E78E
:10204000226801461046F0E770472DE9F041054649
:1020500090F83C0000260C46012810D0012085F89D
:102060003C0072B1042A1CD0082A2CD00C2A50D073
:102070000126002085F83C003046BDE8F0810220B2
:10208000FBE7D4E90012E368286801F0DDFD286869
:10209000816921F00C01816128688169A26811437E
:1020A0000FE0D4E90012E368286801F00BFE28680D
:1020B000816921F44061816128688169A26841EAEF
:1020C00002218161D5E72868D4E9002C277B036AC7
:1020D000016A21F480710162C16923F4007321F067
:1020E000030141EA0C0121F0F00C39074FF40077AD
:1020F0004CEA116107EA02221A43C16102622868B0
:10210000C16921F00C01C1612868C169A26811434D
:102110002BE02868D4E90021E768036AD0F820C0E2
:102120002CF4805CC0F820C0D0F81CC023F400530D
:102130002CF4407C4CEA012121F4704C4FF6FF71E5
:1021400001EA07314FF4005741EA0C0107EA023275
:102150001A43C16102622868C16921F44061C1610A
:102160002868C169A26841EA0221C16181E710B50E
:10217000040003D094F83D0010B107E0012010BD29
:10218000002084F83C00204600F01EF8022084F86D
:102190003D00211D206801F04DFC012084F846001F
:1021A00084F83E0084F83F0084F8400084F8410041
:1021B00084F8420084F8430084F8440084F8450021
:1021C00084F83D00002010BD7047000010B50446A3
:1021D00051B104290DD0082910D094F8410094F889
:1021E0004520012811D10EE094F83E0094F84220D9
:1021F000F7E794F83F0094F84320F2E794F84000A2
:1022000094F84420EDE7012A01D0012010BD0220FE
:1022100019B3042926D0082929D084F8410084F86C
:1022200045000122206801F03BFC134920688842E8
:1022300008D0B0F1804F05D01049884202D0104933
:10224000884204D1816801F00701062903D00168A2
:1022500041F001010160002010BD84F83E0084F8C7
:102260004200DEE784F83F0084F84300D9E784F8B1
:10227000400084F84400D4E7002C014000040040F2
:102280000008004030B50446002551B104290DD0A6
:10229000082910D094F8410094F84520012811D164
:1022A0000EE094F83E0094F84220F7E794F83F00DF
:1022B00094F84320F2E794F8400094F84420EDE7C6
:1022C000012A01D0012030BD022059B1042912D0C9
:1022D000082919D084F8410084F845000C2938D029
:1022E000012534E084F83E0084F842002068C2688A
:1022F00042F0020210E084F83F0084F843002068B6
:10230000C26842F0040207E084F8400084F8440008
:102310002068C26842F00802C2600122206801F011
:10232000BFFB0E492068884208D0B0F1804F05D02D
:102330000B49884202D00B49884204D1816801F0E0
:102340000701062903D0016841F001010160284618
:1023500030BD2068C26842F01002DDE7002C014069
:10236000000400400008004070B5044600680169A0
:102370004FF00005C943890715D4C168C9438907CF
:1023800011D4E91E0161012020772068806980074F
:10239000204602D0FFF758FE04E000F0D1F82046B6
:1023A00000F063F9257720680169C943490717D40C
:1023B000C168C943490713D46FF0040101610220C9
:1023C00020772068806910F4407F204602D0FFF714
:1023D0003BFE04E000F0B4F8204600F046F9257713
:1023E00020680169C943090716D4C168C9430907B0
:1023F00012D46FF008010161042020772068C069C1
:102400008007204602D0FFF71FFE04E000F098F896
:10241000204600F02AF9257720680169C943C906DA
:1024200017D4C168C943C90613D46FF01001016104
:10243000082020772068C06910F4407F204602D031
:10244000FFF702FE04E000F07BF8204600F00DF9F3
:10245000257720680169C943C90708D1C168C94304
:10246000C90704D1891E0161204600F04DF920689A
:102470000169C943090609D4C168C943090605D4DD
:102480006FF0800101612046FFF796FC206801692A
:10249000C943490609D4C168C943490605D46FF048
:1024A00040010161204600F030F920680169C9430C
:1024B00089060BD4C168C943890607D46FF020018F
:1024C00001612046BDE87040FFF777BC70BD000099
:1024D00010B586B00021009101910291039100682E
:1024E0001349884221D11348816941F00401816177
:1024F000816901F004010491816941F00801816161
:102500008069022400F0080004904020CDE9000416
:10251000694609480394FEF77DF90320CDE90004DC
:10252000694606480394FEF775F906B010BD000031
:10253000000400400010024000080140000C01406F
:10254000704770B5044690F83C0000260D460128FF
:102550000FD0012084F83C006AB1042A1DD0082A5B
:102560002FD00C2A3FD00126002084F83C003046B2
:1025700070BD022070BD206801F0B2FA2068816948
:1025800041F0080181612068816921F004018161C5
:10259000206881692A69114311E0206801F0C8FAB6
:1025A0002068816941F4006181612068816921F4BA
:1025B00080618161206881692A6941EA0221816123
:1025C000D2E7206801F0E0FA2068C16941F0080113
:1025D000C1612068C16921F00401C1612068C1693D
:1025E0002A69114311E0206801F0FAFA2068C169F4
:1025F00041F40061C1612068C16921F48061C16159
:102600002068C1692A6941EA0221C161ACE710B5BD
:10261000040003D094F83D0010B107E0012010BD84
:10262000002084F83C00204600F01EF8022084F8C8
:102630003D00211D206801F0FDF9012084F84600CD
:1026400084F83E0084F83F0084F8400084F841009C
:1026500084F8420084F8430084F8440084F845007C
:1026600084F83D00002010BD7047704710B5044647
:10267000022249B104290ED0082913D094F8410050
:10268000012816D0012010BD94F83E000128F9D190
:1026900084F83E200FE094F83F000128F2D184F83E
:1026A0003F2008E094F840000128EBD184F8402056
:1026B00001E084F841200122206801F0F1F90F497E
:1026C0002068884203D1426C42F400424264206890
:1026D000884208D0B0F1804F05D00949884202D025
:1026E0000849884204D1816801F00701062903D016
:1026F000016841F001010160002010BD002C014083
:10270000000400400008004070477047704710B553
:1027100004460068406994F84110C0F3C0102129B4
:1027200011D180B12068143050E8001F21F08001E1
:1027300040E80012002AF5D1A06B08B1FDF7EAFECF
:10274000204601F080FB2068406994F84210C0F3F5
:102750008010222911D180B12068143050E8001F68
:1027600021F0400140E80012002AF5D1E06B08B1E9
:10277000FDF7D0FE204601F03FFB002010BD704762
:10278000F8B5016804460868CA684B6910F00F0F75
:102790004FF0000559D003F0010602F4907737435B
:1027A00065D0C10705D0D10503D5616C41F00101A9
:1027B0006164410705D5D90703D0616C41F002017E
:1027C0006164810705D5D90703D0616C41F004012C
:1027D0006164010707D502F02001314303D0616C29
:1027E00041F008016164616C00293AD0800604D58B
:1027F000900602D5204601F034FB20684069616CE8
:10280000C0F38010090700D460B3204601F0F4FA49
:1028100020684069400621D52068143050E8001F28
:1028200021F0400140E80012002AF5D1E06BA8B188
:102830006D494163E06BFDF791FE002811D0E06B1C
:10284000416B01B0BDE8F040084783060FD5930601
:102850000DD52046BDE8F84001F003BB2046FFF748
:102860008EFFF8BD2046FFF78AFF6564F8BD266B32
:102870002023012E7CD1C6067AD5D60678D50868E5
:102880004868009048694FF00206400640D5E16B69
:10289000086840680004000CE8D0A28D8242E5D9A7
:1028A000E085886920282DD020680C3050E8001F72
:1028B00021F4807140E80012002AF5D1206814301C
:1028C00050E8001F21F0010140E80012002AF5D174
:1028D0002068143050E8001F21F0400140E8001249
:1028E000002AF5D184F84230256320680C3050E886
:1028F000001F21F0100140E80012002AF5D1E06B22
:10290000FDF708FE6663A08DE18D401A81B22AE0D2
:10291000A08DE18D401A81B2E08D0028A6D000295B
:10292000A4D022680C3252E8000F20F4907042E8E4
:102930000007002FF5D12068143050E8002F22F056
:10294000010240E80027002FF5D184F842302563CA
:1029500020680C3050E8002F22F0100240E80023DD
:10296000002BF5D166632046FFF7D0FEF8BDFFE7E8
:1029700005062BD5150629D594F841002128F5D157
:10298000A068B0F5805F01D12069B0B1206A411C18
:102990002162216800784860E08C401E0004000C31
:1029A000E084E3D12068C16821F08001C160206823
:1029B000C16841F04001C160D8E7206A0088C0F3D7
:1029C00008004860206A801C2062E5E74006CDD5FB
:1029D0005006CBD5CA68204622F04002CA6084F86F
:1029E000413000F0B3F8C1E7FB3C000870B50400CB
:1029F00004D094F84100002510B106E0012070BD1C
:102A000084F84050204600F023F8242084F8410048
:102A10002068C16821F40051C160204601F082FAAB
:102A20002068016921F4904101612068416921F029
:102A30002A0141612068C16841F40051C1606564A8
:102A4000202084F8410084F842006563002070BDB6
:102A5000F0B585B0002406460094019402940394D6
:102A600000682D49884254D12C48816941F4804145
:102A70008161816901F480410491816941F004011F
:102A800081618069264D00F0040004904FF40070CD
:102A90000090022001900320039069462846FDF72C
:102AA000B9FE2815CDE90004694628460294FDF7D1
:102AB000B1FE1D4D1B488027C5E90004C5E902474A
:102AC0002C616C61AC612846EC61FDF73DFE08B1FC
:102AD000FDF71EFDF5636E62134D12484435143840
:102AE00001C5102091C5104845F8104944306C616B
:102AF000AC61EC61FDF728FE08B1FDF709FDB56397
:102B00000022114625206E62FEF772F92520FEF79D
:102B100061F905B0F0BD000000380140001002402E
:102B20000008014058000240BC07002090F84230E5
:102B3000202B01D00220704721B11AB1002303637A
:102B400001F04CBA01207047704770477047FEE7AC
:102B500001684A69D24352050FD46FF480624A611A
:102B6000002140F8301F202242738173026942F035
:102B700004020261017301207047002070470000C9
:102B80002DE9F843044600680D46DDE90897016821
:102B90009846164641F4807101604B4600224FF082
:102BA00001112046009700F06BF848B120680068DA
:102BB000C00502D54FF4007020640320BDE8F883FF
:102BC000216805F0FE0008613B464A46154920464B
:102BD00000F09EF888B920684169806900903A4603
:102BE0004946204600F0F2F848B1206C042804D190
:102BF0002068016841F4007101600120DEE7F5B250
:102C0000B8F1010F09D02168300A08613A464946F7
:102C1000204600F0DBF80028E7D12068056100209D
:102C2000CCE700000200010070B516460D460446D0
:102C30001EE02046FFF78CFF08B1012070BD681C24
:102C400016D0FDF7DDFE801BA84200D885B92068AC
:102C50004069C04340070BD5002044F8300F2021C5
:102C60006173A073216941F0200121612073E4E7C1
:102C700020684069C0434007DBD4002070BD0000DD
:102C80002DE9F047984617460D460446C1F307461E
:102C9000DDF820902AE000BFB8F1FF3F26D0FDF715
:102CA000AFFEA0EB0901414502D8B8F1000F1DD1DC
:102CB0002068012E16D0806925EA00000004000C6F
:102CC00012D00020B84211D1002044F8300F20214A
:102CD0006173A073216941F02001216120730120FB
:102CE000BDE8F0874069E7E70120EBE72068012EA7
:102CF0000AD0806925EA00000004000C06D00020FC
:102D0000B842C9D00020EBE74069F3E70120F7E7BC
:102D10002DE9F047984616460D4604464FF0000947
:102D20004FF0200AC1F3074723E020684069C04301
:102D3000400515D42068016841F4007101602168E4
:102D40006FF480604861C4F8309084F83DA084F846
:102D50003E90216C41F00401216484F83C9021E014
:102D6000701C06D0FDF74CFEA0EB0800B04203D863
:102D700016B1012F1FD021E02068012F15D08069E6
:102D800025EA00000004000C18D000BF44F8309F72
:102D900084F80DA084F80E90216941F02001216192
:102DA00084F80C900120BDE8F087406925EA000016
:102DB0000004000CEAD12068406901E020688069C5
:102DC00025EA00000004000CAFD1ECE770B5164610
:102DD0000D4604461EE02046FFF7BAFE08B101206A
:102DE00070BD681C16D0FDF70BFE801BA84200D8F2
:102DF00085B920684069C04300060BD5002044F81F
:102E0000300F20216173A073216941F020012161FD
:102E10002073E4E720684069C0430006DBD400204B
:102E200070BD000038B52148816941F00801816119
:102E3000816901F008010091816941F0010181611E
:102E4000816901F001010091C16941F48001C16112
:102E5000C069122100F480000090154841604FF4D1
:102E600040610160012181600321C1600146114878
:102E7000FDF7D0FC0E4C1020103484F83E000E48B4
:102E800020600E48606000204FF48041A060C4E9DB
:102E900003016061A061E06120622046FDF7B6FD9C
:102EA0002068016841F00101016038BD0010024056
:102EB00044080020000C014000580040A08601009A
:102EC000F0B500230A24302537261F4611E000BF45
:102ED000B4EB107F02D905EB107C01E006EB107C0F
:102EE00001F813C001EB430C00015B1C8CF801706E
:102EF000DBB29342ECD3F0BD0D4808B5416941F017
:102F0000010141614069002200F00100009011467A
:102F10000E20FDF76DFF0E20FDF75CFF002211462D
:102F20000F20FDF765FFBDE808400F20FDF752BFF9
:102F3000001002402DE9F04385B0002421480094A0
:102F4000019402940394816941F0200181618169B7
:102F500001F020010491816941F0040181618169DE
:102F600001F004010491816941F0080181618069E7
:102F7000DFF8548000F0080048F2BE0504900022FB
:102F800029464046FDF736FDDFF840904FF40077C4
:102F9000002239464846FDF72DFD00950226012501
:102FA0000396CDE9015469464046FDF733FC00978E
:102FB0000396CDE9015469464846FDF72BFC05B060
:102FC000BDE8F0830010024000080140000C014001
:102FD0000D4810B50B4901600C49416000214FF4C8
:102FE00080428160C0E9031241618161C161016277
:102FF000FDF70CFD002803D0BDE81040FDF788BAAE
:1030000010BD00000058004090060020A08601007E
:1030100010B58AB0002428480494059406940794B7
:10302000089409940094019402944FF08041039411
:1030300001604721C0E901144FF6FF71C0E9031494
:1030400080218161FEF7EEFE08B1FDF761FA4FF4D1
:103050008050049004A91848FEF788FF08B1FDF7D6
:1030600057FA1548FFF783F808B1FDF751FA0894AD
:1030700008A911480994FEF7A1FE08B1FDF748FA26
:1030800002200090CDE90104002269460A48039419
:10309000FEF7DBFF08B1FDF73BFA0120CDE9004068
:1030A000042269460448FEF7D0FF002801D0FDF74E
:1030B0002FFA0AB010BD0000E406002010B58EB053
:1030C00000240794089409940A940B941C216846E0
:1030D0000C94FDF732F92748254901603B21C0E9EE
:1030E000011445F6BF51C0E9031480218161FEF748
:1030F00099FE08B1FDF70CFA4FF48050079007A92C
:103100001C48FEF733FF08B1FDF702FA1948FFF734
:103110007EFA08B1FDF7FCF90B940BA915480C9445
:10312000FEF74CFE08B1FDF7F3F96020CDE900048D
:103130000294002269460F480494FFF702FA08B18E
:10314000FDF7E6F9082269460A48FFF7FAF908B1DF
:10315000FDF7DEF90C2269460648FFF7F2F908B1DF
:10316000FDF7D6F90348FFF7B3F90EB010BD000024
:10317000000400402C07002010B5194C17480C2102
:1031800020604FF4E13060600020A060E060C4E99E
:103190000401A061E0612046FFF728FC08B1FDF7BB
:1031A000B7F9002211462520FDF722FE2520FDF764
:1031B00011FE0B48FFF7ABFA2068C16841F020010F
:1031C000C1602068C16841F01001C160BDE81040D5
:1031D000402204490248FFF7A9BC00000038014022
:1031E000740700205006002010B500220F49104837
:1031F00001F02AFA08B1FDF78BF90E490C4801F0ED
:1032000007FC08B1FDF784F90B49094801F044F8BF
:1032100008B1FDF77DF9064801F050FC002803D005
:10322000BDE81040FDF774B910BD00009C040020FB
:10323000A8080020D8050020EC040020FEE7FEE7E7
:10324000002000F01FB82DE9F04798461746824647
:1032500000260C46DDF8209010E02146504600F094
:10326000AEF8554606E019F80600761C00F05CF949
:103270006D1CEDB2BD42F6D3641CE4B24445ECD300
:10328000BDE8F08770B506465FF0000404F1B000B9
:10329000C0B200F037F9002000F034F9102000F03F
:1032A00031F90025304600F03FF96D1CEDB2802D5C
:1032B000F8D3641CE4B2082CE8D370BD10B5AE207E
:1032C00000F020F9812000F01DF9FF2000F01AF92C
:1032D000A42000F017F9A62000F014F92E2000F029
:1032E00011F9262000F00EF9002000F00BF9002063
:1032F00000F008F9032000F005F9072000F002F9BA
:10330000002000F0FFF8FF2000F0FCF8202000F083
:10331000F9F8102000F0F6F8B02000F0F3F80020E3
:1033200000F0F0F8102000F0EDF8402000F0EAF88E
:10333000A12000F0E7F8A82000F0E4F83F2000F01A
:10334000E1F8C82000F0DEF8D32000F0DBF8002020
:1033500000F0D8F8DA2000F0D5F8122000F0D2F80A
:10336000D92000F0CFF8222000F0CCF8DB2000F0CC
:10337000C9F8202000F0C6F88D2000F0C3F8142012
:1033800000F0C0F8BDE81040AF2000F0BBB810B5A9
:103390008D2000F0B7F8102000F0B4F8BDE8104020
:1033A000AE2000F0AFB810B58D2000F0ABF81420BF
:1033B00000F0A8F8BDE81040AF2000F0A3B810B5A9
:1033C0000446B031C8B200F09DF8102040EA141055
:1033D00000F098F804F00F00BDE8104040F0010044
:1033E00000F090B82DE9F0410F46804600255401C9
:1033F000FFF7E5FF0C4E305D00F096F86D1CEDB266
:10340000641C102DF7D37F1CF9B24046FFF7D7FF9D
:103410000025305D00F088F86D1CEDB2641C102DA5
:10342000F7D3BDE8F0810000180400202DE9F04733
:10343000002591468A460446012B22D0DFF8BC8045
:10344000022B24D155E02038C7B27E2C04D90AF1D2
:103450000100002400F0FF0A51462046FFF7AFFFAD
:1034600007EB4700002608EB4007B85D00F05CF86A
:10347000761CF6B2062EF8D3A41D6D1CE4B2EDB294
:1034800001E0DFF87C8019F805000028DBD1BDE8F9
:10349000F0872038C7B2782C04D90AF10100002443
:1034A00000F0FF0A51462046FFF789FF5FF0000653
:1034B00006EB071118F8010000F036F8761CF6B29A
:1034C000082EF5D30AF10100C1B22046FFF777FFBD
:1034D0005FF0000606EB071101EB0800007A00F030
:1034E00023F8761CF6B2082EF4D308346D1CE4B22F
:1034F000EDB219F805000028CBD1C8E7FA5A000848
:10350000D258000801B584B001214FF4807204A89C
:103510008DE807000B46002278210248FDF73AFBB0
:1035200005B000BD5408002001B584B001214FF45E
:10353000807204A88DE807000B46402278210248DB
:10354000FDF728FB05B000BD540800202DE9F84F19
:10355000044640F68F7B48F60F794FF480684FF0B1
:10356000000AC0E1B0F8441011F00F0539D030F86E
:10357000256031047ED530F8251001EA0B0141F0B9
:10358000800120F8251005EB850004EBC00797F8B3
:10359000740107F5B47700286DD0F87802286BD055
:1035A0003978226832F8210048F68F73184048F2C3
:1035B000C003184322F821003978206830F8212010
:1035C000B0F8503052047DD5022202EBC1015A18E6
:1035D00008EB4201415A8905890D009173D03A895F
:1035E000DFE0C9062DD4018801EA090141F4004158
:1035F0000180206804F12805B0F8503029780222B3
:1036000002EBC1015A1808EB4201405AC0F309000D
:103610006064E16B0844E06300212046FDF739FC5B
:1036200094F8240000289CD0A869002899D194F827
:103630002400216840F08000A1F84C0084F824A008
:1036400051E1018804F5B4750A0521D5B0F8502080
:103650002B78062101EBC3010A4408EB4201405AD2
:1036600004F52C71C0F30903EB61EA88206802F0CD
:103670004DF802E0B0E070E080E02068018801EAE7
:103680000B0141F0800101802046FEF76CF82AE131
:103690000904D5D5018801EA0B0141F080010180C0
:1036A0002068B0F850202B78062101EBC3010A44B2
:1036B00008EB4201405A83059B0DEB6110D069690C
:1036C00071B101E061E05FE0EA88206802F01EF875
:1036D000E96968690844686100212046FDF7E2FB5A
:1036E000216808880205ABD4C0F301300328A7D0B5
:1036F000B1F850000844B0F80C14C1F30901A0F867
:103700000C142A6900F20C403E2A09D95109D2064C
:1037100000D1491E02884FF4004343EA812109E0A9
:10372000B2B15108D20700D0491C02884FF6FF738E
:1037300003EA81210A430280216808884BF68F72D0
:10374000104080F4405048F2800210430880CAE0E4
:10375000018841F400410180EEE72068B0F8502074
:103760003B78062101EBC3010A4408EB4201415AB0
:103770008905890D009118D0FA8812E03246394641
:103780002046FDF7EDFB00900FE0062202EBC101A1
:103790005A1808EB4201415A8905890D009104D05D
:1037A0007A897969009B01F0B1FFF86900990844B2
:1037B000F8617969009808447861B86918B1396985
:1037C0000098814204D939782046FDF76BFB03E06D
:1037D0003946206801F016FD30062FD505EB85002F
:1037E00004EBC001206830F8252002EA090242F407
:1037F000004220F8252091F82B00283101281ED006
:10380000F0056CD42068B0F850300D78022202EB3D
:10381000C5021A4408EB4202805A8A69C0F30900C3
:10382000824255D9121A8A6154D04A6902444A61C7
:10383000CA691044C861206801F0E4FC53E0C1F893
:1038400018A0087B524608B3700620D5487810B1FE
:10385000012812D03AE02068B0F8502010440A78CD
:1038600000EB0210B0F80424C2F30902A0F804240B
:10387000B0F8042442F4004206E02068B0F850306A
:1038800018440B7800EB0310A0F804241EE04B78DA
:10389000206813B1012B11D018E0B0F8502010446B
:1038A0000A7800EB0210B0F80C24C2F30902A0F869
:1038B0000C24B0F80C2442F4004205E0B0F850307B
:1038C00018440B7800EB0310A0F80C24097802E0F0
:1038D000C1F818A0E9B22046FDF7DBFA03E0324652
:1038E0002046FDF7B0FB2068B0F8441009043FF50E
:1038F00039AE0020BDE8F88F7047FEF7B7BE7047BD
:10390000FDF710BA30B593B028216846FCF715FDD5
:1039100014210AA8FCF711FD002401200F94109433
:103920001194010412948DE8130004904FF4E010F8
:10393000CDE90810022507956846FEF799F808B109
:1039400072B6FEE70F20CDE90A054FF48060CDE99D
:103950000C4002210AA80E94FDF7AEFF08B172B622
:10396000FEE710200F90800412900FA8FDF72EFFA5
:10397000002801D072B6FEE713B030BD70470000DA
:10398000064810B500684FF47A71B0FBF1F0FEF70D
:10399000FFF9002800D0FEE710BD0000140400204D
:1039A000FDF728B870B51D4D1D4CA84216D151B178
:1039B00001290AD0022930D1012210212846FFF71F
:1039C000EFFF002207E00022F7E70022102128463F
:1039D000FFF7E6FF01222021284611E0A0421CD17A
:1039E0004FF40050450079B101290FD0022914D1BC
:1039F000012201462046FFF7D3FF00222946204638
:103A0000BDE87040FFF7CCBF0022F2E7014600227C
:103A10002046FFF7C5FF0122F0E770BD0008014016
:103A2000000C0140FEF722BE0148FEF79DBC0000DD
:103A3000E4060020F0B50268164B174C174D4FF006
:103A40008047984205D0B84203D0A04201D0A84296
:103A500003D122F070064A683243984205D0B8423A
:103A600003D0A04201D0A84203D122F44074CA6816
:103A700022434C6922F08002224302608A68C262BB
:103A80000A688262984201D109690163012141619A
:103A9000F0BD0000002C0140000400400008004080
:103AA00010B501F01F030121046A99408C430462A0
:103AB000016A9A401143016210BD10B5846842EA60
:103AC000032224F47F440A432243826010BD8268AB
:103AD00022F070020A4342F0070181607047000043
:103AE00030B5036A026A22F0010202624268846908
:103AF00024F073050C682C4323F002058B682B43DC
:103B00000A4DA8420BD123F00805CB6822F440727D
:103B10002B434D6923F0040315438A692A4342600D
:103B2000846149684163036230BD0000002C01409C
:103B300030B5026A036A23F01003036243688469A4
:103B40000D6824F4E64444EA05248D6822F020023E
:103B500042EA05120B4DA8420ED1CD6822F0800238
:103B600042EA05124D6923F4406343EA85038D69F7
:103B700022F0400243EA850343608461496881631F
:103B8000026230BD002C014030B5036A026A22F4A3
:103B9000807202624268C46923F4007324F07305E2
:103BA0000C682C438D6843EA05230C4DA8420ED1C6
:103BB000CD6823F4006343EA05234D6922F44052A3
:103BC00042EA05128D6923F4806342EA05124260DD
:103BD000C4614968C163036230BD0000002C01402C
:103BE00030B5046A026A22F4805202624268C369F4
:103BF0000D6823F4E64343EA05238D6824F400545A
:103C000044EA0534064DA84204D14D6922F48042AD
:103C100042EA85124260C36149680164046230BDB2
:103C2000002C014010B5036A046A24F00104046208
:103C3000846924F0F00444EA021423F00A020A43DF
:103C40008461026210BD000070B5056A046A24F048
:103C50000104046284690F4EB04208D0B0F1804F75
:103C600005D00D4EB04202D00C4EB04203D124F02C
:103C70000304144301E044F001041A0724F0F004A3
:103C800044EA126225F00A0301F00A011943826135
:103C9000016270BD002C014000040040000800409B
:103CA00010B5036A046A24F010040462846923F0E6
:103CB000A00324F4704444EA023243EA0111826111
:103CC000016210BD30B5046A056A25F01005056271
:103CD000856925F4407545EA022222F470454FF6C5
:103CE000FF7202EA033224F0A0032A43A02404EA6C
:103CF000011119438261016230BD10B5406A002193
:103D0000C185C184FEF73BFD10BD70B5446A2068D3
:103D1000406994F84110C0F3C0100025212904D156
:103D200018B1E584204600F08EF82068406994F8C8
:103D30004210C0F38010222904D118B1E585204635
:103D400000F05AF8606C40F0100060642046FEF706
:103D500016FD70BD10B50146406A096809684FF04C
:103D6000000289062ED4C28501680C3151E8003F5B
:103D700023F4807341E80034002CF5D1016814313C
:103D800051E8003F23F0010341E80034002CF5D155
:103D90000168143151E8003F23F0400341E800344A
:103DA000002CF5D1202180F84210016B012909D1A6
:103DB00001680C3151E8003F23F0100341E8003462
:103DC000002CF5D14263016B012902D0FEF7BCFE45
:103DD00010BD818DFEF79AFC10BD10B5406A01211F
:103DE0004163016B012902D0FEF7AFFE10BD818D4A
:103DF0004908FEF78BFC10BD01680C3151E8002F1B
:103E000022F4907241E80023002BF5D101681431AF
:103E100051E8002F22F0010241E80023002BF5D1E8
:103E2000016B012909D101680C3151E8002F22F002
:103E3000100241E80023002BF5D1202180F8421028
:103E400000210163704701680C3151E8002F22F016
:103E5000C00241E80023002BF5D1202180F8411059
:103E6000704708B590F84210222901D0022008BD01
:103E700082684FF480539A4201D1016921B1816A6D
:103E80009A421BD04AB10AE00268816A5268C2F3C2
:103E900008020A80816A891C08E0026972B102681E
:103EA000526802F07F020A70816A491C8162C18DEA
:103EB000491E0904090CC18503D01BE00268526841
:103EC000F1E70168CA6822F02002CA600168CA6886
:103ED00022F48072CA6001684A6922F001024A61D4
:103EE000202180F8421000214163026B012A03D097
:103EF000FEF72AFE002008BD016301680C3151E87D
:103F0000002F22F0100241E80023002BF5D10168B8
:103F10000A68D20602D50A6849680091818DFEF7C9
:103F2000F5FBE7E770B5044600680169E26821F433
:103F30004051114301612169A06808436169084348
:103F40002168CA6841F20C639A430243CA60206840
:103F50004169A26921F44071114341611E49206801
:103F6000884202D1FDF74EFD01E0FDF73BFD00EB7D
:103F7000C00101EB0012606864218000B2FBF0F325
:103F8000B3FBF1F36FF018067343B2FBF0F5B2FB2D
:103F9000F0F605EB8305322303EB0515B5FBF1F5D0
:103FA000B6FBF1F605F0F00505EB0615B2FBF0F6F1
:103FB000B2FBF0F0B0FBF1F06FF01802504306EBEB
:103FC000800003EB0010B0FBF1F0216800F00F005F
:103FD0002844886070BD00000038014038B5816217
:103FE00004468285002013466064222284F8422021
:103FF000E56B1B4AAA62E56B1A4AEA62E56B1A4A4C
:104000002A63E26B50630A462168E06B091DFCF7E6
:10401000C9FB2068016840680090206948B12068A9
:104020000C3050E8001F41F4807140E80012002A73
:10403000F5D12068143050E8001F41F0010140E83C
:104040000012002AF5D12068143050E8001F41F01A
:10405000400140E80012002AF5D1002038BD0000E0
:10406000553D0008DB3D00080B3D000810B5134826
:10407000FEF786FB114C20680168C1F3001181B185
:104080006FF0100101602046FEF741FB0C4800680C
:1040900040680C4980B2C0F5007008800A490120D0
:1040A00008802068C16841F02001C160BDE810406F
:1040B000402206490148FEF739BD00007407002080
:1040C000BC07002002040020040400205006002049
:1040D0002DE9F041D0F8C032D0F8B822CAB101EBD6
:1040E000810500EB85040026E7693FB103EBC503BA
:1040F0009B6BB7FBF3F503FB157323B1C2F8146296
:104100000020BDE8F08100231A46E66100F063FC60
:10411000F6E70220F5E770B50546D0F8B84200F0A2
:104120005EFBC4F80C02D5F8B80248B1D5F8BC1251
:10413000D4F80402CA6804F503719047002070BDEA
:10414000022070BD70B504460026812100F09AFA65
:10415000002501212046E56200F094FA82212046E4
:10416000C4F86C5100F08EFA2564D4F8B80248B156
:10417000D4F8BC0204F52E7440688047206800F033
:10418000FAFD2560304670BD10B5D0E9AE4159B199
:1041900094F80002FF2807D08B6894F8012221468A
:1041A0009847FF2084F80002002010BD0A210180FA
:1041B00000487047000500204321018000487047F7
:1041C0005005002043210180004870470C05002065
:1041D0004321018000487047940500202DE9F041FB
:1041E00004460026007C4FF40077012590B340235D
:1041F00002228121204600F047FB4023E562022293
:104200000121204600F040FB0823032282212046A2
:10421000C4F86C5100F038FB4FF40770256400F0CF
:10422000ABFDC4F8B802F8B10546D4F8BC0200688A
:1042300080470020C5F81402C5F81802207CD5F884
:10424000042298B140230121204600F029FB30468A
:10425000BDE8F081FFE73B4602228121204600F0C5
:1042600013FB3B46E562CAE70126F0E73B46EAE777
:1042700010B5D0F8B81269B1027C002AD1F8042236
:1042800005D04023012100F00BFB002010BD4FF4AE
:104290000073F7E7022010BD02460220002902D079
:1042A0000020C2F8BC127047D0F8B802C0F804125F
:1042B00000207047D0F8B802C0F81022C0F80812E9
:1042C000002070472DE9FC410546D0F8B872002067
:1042D0008DF80000ADF80400064608780C4610F092
:1042E000600121D020293BD1E288AAB10006607884
:1042F00007D5D5F8BC128B6839469847E28839460D
:1043000026E087F80002A07987F80102E2883946A2
:10431000284600F04FF828E0D5F8BC12607800225B
:104320008B682146984720E0607820B10A2809D0A0
:104330000B2815D110E095F89C02032810D1022219
:1043400001A905E095F89C02032809D101226946DC
:10435000284600F049F808E095F89C02032804D0AC
:104360002146284600F01BF802263046BDE8FC81B5
:1043700010B5D0F8B42252689047002010BD134603
:1043800010B50A46002100F08BFA002010BD13463C
:1043900010B50A46002100F01EFB002010BD10B52C
:1043A0000446802100F0FCFA2046BDE810400021C0
:1043B00000F0F6BA10B50323C0F85C21C0F89432BF
:1043C000C0F8602113460A46002100F069FA002077
:1043D00010BD10B505210023C0F894121A461946E5
:1043E00000F05EFA002010BD10B50223C261C0F8D3
:1043F0009432026213460A46002100F0ECFA0020D3
:1044000010BD10B504210023C0F894121A461946B5
:1044100000F0E1FA002010BD10B50A46024903A0E1
:1044200000F0E2F8004810BD6C0B0020434443202C
:10443000436F6E666967000012200880004870476D
:10444000BC04002010B50A46024903A000F0CCF8D5
:10445000004810BD6C0B002043444320496E746536
:1044600072666163650000000420088000487047A0
:10447000B804002010B50A46024903A000F0B4F8C1
:10448000004810BD6C0B002053544D6963726F657A
:104490006C656374726F6E696373000010B50A46D1
:1044A000024903A000F0A0F8004810BD6C0B0020EA
:1044B00053544D3332205669727475616C20436FCA
:1044C0006D506F727400000010B51A2008800A4801
:1044D0000168001D0468001D0068081809D0082242
:1044E0000649FEF7EDFC0549042210312046FEF78F
:1044F000E7FC0248801E10BDE8F7FF1FD204002031
:10450000F8B504460020ADF8000048880D46010AC1
:10451000082948D2DFE801F04704091747473C451E
:10452000D4F8B012207C0A6819E0207C022600280A
:10453000D4F8B40205D0C16A68468847014646707F
:104540003EE0816AF8E7C0B206282CD2DFE800F02E
:10455000030A1014181CD4F8B002426805E069463A
:1045600090471CE0D4F8B0028268E2B1207CF6E704
:10457000D4F8B002C268F8E7D4F8B0020269F4E7F0
:10458000D4F8B0024269F0E7D4F8B0028269ECE7EF
:10459000207C40B9D4F8B402416B68468847014694
:1045A0000EE0207C20B129462046FFF7F8FEF8BD3A
:1045B000D4F8B402016B684688470146072048706A
:1045C000BDF8000048B1EA8852B1824200D90246E3
:1045D000ADF800202046FFF707FFE8880028E6D165
:1045E0002046FFF70EFFF8BD70B5002300281ED04F
:1045F0000446002502E06D1CEDB2641C2678002EF6
:10460000F9D1022404EB450414801278CA545B1CCF
:104610000322CA5400245B1C06E0CA545B1CDAB2B5
:104620008C54521CD3B2401C0278002AF5D170BDC4
:1046300001004FF0000004D0012901D0022901D06F
:10464000022070470120704710B580B1D0F8B43215
:1046500013B10023C0F8B43209B1C0F8B01201217F
:1046600080F89C12027000F0BFF8002010BD0220FC
:1046700010BD10B5D0F8C002FCF744FCBDE81040F6
:10468000FFF7D6BF10B5D0F8C002FCF715FCBDE8A7
:104690001040FFF7CDBF2DE9F0411746044651B158
:1046A000D4F8B40242691AB194F89C02032851D09C
:1046B0000220BDE8F081D4F89432002504F1140002
:1046C000022B03D0042B3AD0C3B33CE0D0E9036300
:1046D0009E4207D9F11AC1608AB239462046FFF7D7
:1046E00056FE12E08068B0FBF3F103FB110199B9AB
:1046F000984211D3D4F8981288420DD20022114664
:104700002046FFF744FEC4F8985200231A46194683
:10471000204600F0C5F816E0D4F8B402C16829B10B
:1047200094F89C02032801D1204688478021204626
:1047300000F036F92046FFF74CFE04E0FFE7802149
:10474000204600F02DF994F8A002012804D184F845
:10475000A05201E0204690470020AAE770B5154618
:10476000044649B1D4F8B40282691AB194F89C02A3
:10477000032830D0022070BDD4F8941204F5AA703A
:10478000032902D005291ED027E0D0E903218A425F
:104790000BD9531AC3600846834200D303469AB22A
:1047A00029462046FFF7EBFD17E0D4F8B402016973
:1047B00029B194F89C02032801D12046884720465D
:1047C000FFF71FFE09E000200146C4F894022046CE
:1047D00000F0E6F801E020469047002070BDD0F8D8
:1047E000C002FCF7CCBD000010B504461C481D49B2
:1047F000C0F8EC42C4F8C002016008214160022107
:10480000816000218161C1610162FCF7F1FE08B1A4
:10481000FBF77EFE0022D4F8C0021823114604F5EF
:104820003074FCF717FB5823002280212068FCF726
:1048300011FBC023002281212068FCF70BFB4FF401
:104840008873002201212068FCF704FB4FF4807379
:10485000002282212068FCF7FDFA002010BD000034
:104860005C170020005C00400A0601F07F01D0F8D0
:10487000C00201EB810100EBC10002D590F82A00D3
:10488000704790F86A01704710B51C461346D0F87F
:10489000C0022246FCF77CFDBDE81040FFF7C8BE11
:1048A00010B5D0F8C002FCF7A0FDBDE81040FFF73E
:1048B000BFBE70B50022044640231146FFF7E4FF57
:1048C00040260125C4F86461334600228021204639
:1048D000C4F85851FFF7D8FF6662A56184F89C526E
:1048E0000020C4F894026060C4F8A402D4F8B802AE
:1048F00028B1D4F8B4020021426820469047002035
:1049000070BD90F89C12042903D190F89D1280F894
:104910009C120020704710B590F89C12032904D116
:10492000D0F8B412C96901B18847002010BD0174E4
:104930000020704710B5D0F8C002FCF700FFBDE8BA
:104940001040FFF775BE70B5044600F52A700546A5
:1049500000F04AF80120C4F89402B4F8AE02C4F89A
:10496000980294F8A80210F01F010AD001290DD076
:10497000022910D000F08001204600F011F800203C
:1049800070BD2946204600F09EF8F8E729462046EB
:1049900000F0CAF9F3E72946204600F01DF9EEE7DA
:1049A00010B5D0F8C002FCF737FDBDE81040FFF7A6
:1049B0003FBE10B5D0F8C002FCF7DCFEBDE81040E9
:1049C000FFF736BE90F89C1280F89D12042180F803
:1049D0009C120020704710B5D0F8C002FCF755FDBE
:1049E000BDE81040FFF724BE0A7802704A78427092
:1049F0008A78CB7802EB032242800A794B7902EB6A
:104A0000032282808A79C97902EB0121C180704733
:104A10000246002011B1C2F8B4127047022070475C
:104A200010B5D0F8B42202241AB11268904700B928
:104A30000024204610BD000070B50E461E4D89783A
:104A400004462970012931D894F89C0202280BD021
:104A500003280FD031462046FFF7A1FC29782046D5
:104A6000BDE87040FFF784BCD9B10320616084F8D1
:104A70009C0209E071B16068884212D0C1B2204640
:104A8000FFF776FC297861602046FFF7C9FF02280E
:104A90000CD006E0022084F89C0220466160FFF7FB
:104AA00067FC2046BDE87040FFF7ABBC31462046AE
:104AB000BDE87040FFF773BCFC04002010B5FFF7A1
:104AC00078FF002010BD2DE9F0410A78002612F091
:104AD000600208D0202A01D0402A70D1D0F8B42238
:104AE000926890476DE04B78002201250A2B66D230
:104AF000DFE803F0405D6557650805652C29FFF781
:104B0000FFFC5EE004468888D8B9C888C8B94888E0
:104B1000802816D200F07F0794F89C02032810D05A
:104B200084F89E7239462046FFF704FF2046FFF7BF
:104B300068FC1FB1022084F89C0242E084F89C5279
:104B40003FE020463BE0FFF777FF3AE0CB88012BC0
:104B500035D190F89C32012B04D0022B02D0032BCC
:104B60002DD104E08260012200F1080116E001224B
:104B7000011D13E090F89C22012A03D0022A01D0E3
:104B8000032A1CD1CA88022A19D1C560D0F8A41200
:104B900009B10321C160022200F10C01FFF724FCDE
:104BA0000FE0498801290CD1C0F8A45211E090F817
:104BB0009C32012B08D0022B06D0032B04D0FFF728
:104BC000EEFB3046BDE8F08149880129F9D1C0F8F3
:104BD000A422FFF716FCF4E72DE9F0410A4604464B
:104BE00010780027097910F060030AD0202B01D03B
:104BF000402B50D1D4F8B402114683682046984720
:104C00008FE0C0F34110012806D05078D0B30128BE
:104C10002AD003283FD107E0D4F8B40211468368B4
:104C20002046BDE8F041184794F89C02022802D0C3
:104C3000032872D10AE071B380296ED02046FFF7B5
:104C4000AFFE80212046FFF7ABFE6AE0508838B9FE
:104C500031B1802904D0D08810B92046FFF7A0FEDA
:104C60002046FFF7CEFB5CE094F89C020228E2D0DD
:104C7000032852D1508898BB4806F1D02046FFF750
:104C8000F8FCEDE7FFE794F89C020026022803D029
:104C9000032842D112E040E009B180293DD1080645
:104CA00001F07F0000EB800004EB800101D514319E
:104CB00001E001F5AA7102220E602AE0080601F067
:104CC0000F0000EB800004EB80000AD5806920B360
:104CD00001F07F0000EB800004EB800514350BE051
:104CE0001FE0D0F85801C0B101F07F0000EB800058
:104CF00004EB800505F5AA7541B1802906D0204650
:104D0000FFF7B2FD10B10120286000E02E60022202
:104D100029462046FFF768FB03E011462046FFF7CF
:104D20003EFB3846BDE8F08170B5054608780C4674
:104D300010F0600003D0202801D0402816D195F84B
:104D40009C02012803D0022801D003280ED120792B
:104D500001280BD8D5F8B402826828469047E1882C
:104D6000014306D12846FFF74CFB02E02846FFF737
:104D700016FB002070BD7047004870473C150020AE
:104D80002DE9F0470C78002630F8243048F68F12D1
:104D90001340CA78002A78D0012A7CD0022A02D097
:104DA000032A75D0012648F28002134320F82430EC
:104DB0000D7830F8253048F68F7423402B43134389
:104DC00020F825300D7B48F2C00948F6BF734CF23D
:104DD000800A4BF68F77EDB3CD7891F800C0022DA5
:104DE00030F82C507DD048F68F6805EA0805154349
:104DF00020F82C50B0F8505091F800C0054405EB55
:104E00000C15B1F808C02CF0010CA5F800C4B0F8DE
:104E1000505091F800C0054405EB0C15B1F80AC0DC
:104E20002CF0010CA5F808C44D78002D7ED00D782B
:104E300030F825C05FEA4C4C07D530F825C00CEAA5
:104E4000040C4CEA0A0C20F825C091F800C030F898
:104E50002C5000E022E06D0606D530F82C5025409D
:104E600045EA090520F82C50CC780D78012C30F853
:104E7000254004EA03047CD084F02003134320F887
:104E80002530C1E001E006E002E043F400738AE768
:104E900043F4C06387E743F4806384E74D784DB300
:104EA000B0F850500F78054405EB0715CF8827F070
:104EB0000107A5F800740F7830F827506D0606D565
:104EC00030F82750254045EA090520F82750CC78CE
:104ED000012C07D00C7830F82410194081F0200103
:104EE00004E064E00C7830F824101940114320F8F5
:104EF000241090E0B0F850300D78034403EB051314
:104F0000CD8825F00105A3F80854B0F850300D788D
:104F1000034403EB0513B3F80C54C5F30905A3F8D8
:104F20000C540D6903F20C433E2D00E045E00BD913
:104F30004FEA551CED0601D1ACF1010C1D884FF470
:104F4000004848EA8C2C0BE035B34FEA550CED07CE
:104F500001D00CF1010C1D884FF6FF7808EA8C2C6B
:104F600045EA0C051D800D7830F825305B0408D526
:104F700000E046E030F82530234043EA0A0320F8F9
:104F80002530097861B130F821303B4083F400537B
:104F9000134320F821303EE01D8845F40045E1E749
:104FA0000188394081F440511143018033E02540AC
:104FB00048F2801845EA08051AE791F800C030F871
:104FC0002C506D0406D530F82C50254045EA0A05D2
:104FD00020F82C5091F800C030F82C506D0606D502
:104FE00030F82C50254045EA090520F82C500D7862
:104FF00030F825403C4084F44054144320F82540C8
:1050000070E7144320F825400B7830F8231039401E
:10501000114320F823103046BDE8F0870020704788
:105020002DE9F04391F80C804F780A7848F6BF7C60
:105030004BF68F7948F2800348F2C0054CF28006A7
:1050400048F68F74B8F1000F28D0002F30F8227086
:105050004FEA474748D0002F05DA30F82270274042
:10506000374320F822700A7830F822707F0605D581
:1050700030F8227027402F4320F822700D7830F846
:1050800025202240324320F825200C7830F82420B7
:1050900002EA0C021A4320F824201AE07FB130F80B
:1050A0002260760605D530F8226026402E4320F88F
:1050B00022600A7830F8221001EA0C010EE030F884
:1050C00022506D0405D530F822502540354320F894
:1050D00022500A7830F8221001EA0901194320F819
:1050E00022100020BDE8F083002F05DA30F822708E
:1050F0002740374320F822700A7830F8226076067D
:1051000005D530F8226026402E4320F822600E7824
:1051100030F8262022402A4320F826200C7830F848
:10512000242002EA09021A4320F82420C1E70020C3
:10513000704700207047012120F8401F00210180A6
:10514000818001820846704730F8401F21F43F41BA
:105150000180002070470020704730B50A7BB2BB49
:105160004A7848F68F7548F28004C2B10B7830F85F
:105170002320520607D530F823202A4048F2C005E4
:105180002A4320F82320CA78012A20D00A7830F850
:10519000221048F6BF73194081F0200114E00A780C
:1051A00030F822305B0407D530F822302B404CF227
:1051B00080052B4320F822300A7830F822104BF675
:1051C0008F73194081F44051214320F822100020B0
:1051D00030BD10B54A780978002A48F2800330F8CB
:1051E000212005D048F6BF74224082F0100204E06E
:1051F0004BF68F74224082F480521A4320F821200B
:10520000002010BD2DE9F0470D464B78097B044680
:105210004FF0000948F68F7248F2800A4FF40047B9
:105220004FF6FF78012B09D000296FD0E8780228CB
:105230006DD001286CD00120BDE8F087AE692869E7
:10524000864200D9064691B1E97802291ED0286A23
:10525000801B2862287834F820104906B4F85010D2
:10526000214401EB001073D5A0F80C6416E1B3B231
:10527000EA882046696900F067FAB4F85000297896
:10528000204400EB0110A0F804640DE1296A81427A
:1052900077D9297834F82100104048F28012104361
:1052A00024F82100286A801B2862287834F820100E
:1052B0004906697871D511B101292AD030E0B4F8D6
:1052C0005010214401EB0010B0F80C14C1F3090197
:1052D000A0F80C1400F20C403E2E07D97109F2061A
:1052E00000D1491E028847EA812107E04EB17108CA
:1052F000F20700D0491C028808EA81210A43028093
:105300000EE0018841F40041018009E0F1E020E174
:1053100095E1B4F85020111901EB0010A0F80C64CD
:105320006A89B3B22046696900F00EFA68693044B0
:1053300068612969286A884202D9801B286202E0D4
:105340000646C5F82090687818B101282BD032E0C5
:105350002FE0B4F850002978204400EB0110B0F899
:105360000414C1F30901A0F8041400F204403E2E15
:1053700008D97109F20600D1491E028847EA812145
:1053800008E0A1E056B17108F20700D0491C02887C
:1053900008EA81210A4302800DE00EE0018841F411
:1053A0000041018007E0B4F850002978204400EB68
:1053B0000110A0F804642A8971E011B1012927D0F5
:1053C0002DE0B4F85010214401EB0010B0F80414A3
:1053D000C1F30901A0F8041400F204403E2E07D9DD
:1053E0007109F20600D1491E028847EA812107E0CF
:1053F0004EB17108F20700D0491C028808EA8121E9
:105400000A4302800BE0018841F40041018006E07C
:10541000B4F85010214401EB0010A0F804642A896C
:10542000B3B22046696900F08FF968693044686159
:105430002969286A884202D9801B286202E0064650
:10544000C5F82090687810B1012836D026E0B4F86D
:1054500050002978204400EB0110B0F80C14C1F37F
:105460000901A0F80C1400F20C403E2E07D9710976
:10547000F20600D1491E028847EA812107E04EB1B9
:105480007108F20700D0491C028808EA81210A430A
:10549000028003E0018841F4004101806A89B3B2CF
:1054A0002046696900F050F9297834F8210048F65F
:1054B000BF72104080F030000FE1B4F850100819AE
:1054C000297800EB0110CFE62A7834F8220048F65C
:1054D0008F63184040EA0A0024F82200B4F8500014
:1054E0002A78204400EB02108BB2A0F804342A89F9
:1054F000D6E7A9692869814202D9091AA96102E09F
:105500000846C5F81890B4F850102A78214401EBE9
:105510000211B1F80C24C2F30902A1F80C2401F223
:105520000C413E287DD94209C00600D1521E088890
:1055300047EA82220AE0088840F4004007E0420877
:10554000C00700D0521C088808EA82221043088055
:10555000BBE033BBB4F850002978204400EB0110C5
:10556000B0F80414C1F30901A0F80414296900F289
:1055700004403E2907D94B09C90600D15B1E0188AA
:1055800047EA832307E041B14B08C90700D05B1C01
:10559000018808EA8323194302E0018841F40041AD
:1055A0000180687810B1012828D030E0B4F85000AC
:1055B0002978204400EB0110B0F80C14C1F3090164
:1055C000A0F80C14296900F20C403E2907D94B09B8
:1055D000C90600D15B1E018847EA832307E041B179
:1055E0004B08C90700D05B1C018808EA83231943D4
:1055F00002E0018841F40041018008E0B4F8501055
:105600000819297800EB0110298AA0F80C14E86920
:10561000C0B3297834F82100430401D5430605D4EA
:1056200000E046E044F2400318424ED134F8210035
:10563000104048F2C002104324F8210045E0A96957
:105640002869814202D9091AA96102E00846C5F811
:10565000189013BBB4F850102A78214401EB0211C2
:10566000B1F80424C2F30902A1F8042401F20441B0
:105670003E2808D94209C30600D1521E0B8847EACA
:10568000822208E021E078B14208C30700D0521C12
:105690000B8808EA822213430B80697800293FF4C3
:1056A0002EAF012909D010E00A8842F400420A8096
:1056B000F3E700287FF443AF3DE7B4F85020111919
:1056C0002A7801EB0211A1F80C04297834F82100A2
:1056D0004BF68F72104080F4405040EA0A0024F8E4
:1056E00021000020A8E50021A0F844104FF43F411C
:1056F000A0F84010002070470148FBF7DFBE000013
:105700005C170020B0F844007047000010B500EBB3
:1057100042005C0800F5806009D000BF30F8042B1F
:1057200001F8012B120A01F8012B641EF6D1DA07E9
:1057300001D00088087010BD0020704711B9802189
:10574000A0F84C100020704710B55B1C00EB420025
:105750005B0800F5806009D011F8012B11F8014BAE
:1057600042EA042220F8042B5B1EF5D110BDFEE7AF
:105770000907090E002804DB00F1E02080F800147E
:10578000704700F00F0000F1E02080F8141D704712
:1057900008B5FBF7CFFAFEF7B5F8FDF7CBFBFDF741
:1057A000ABFBFDF735FCFDF789FCFDF711FCFDF7C0
:1057B000E3FCFDF719FD3048FCF7ACFB04212E4853
:1057C000FCF704FD04212C48FCF75CFD00212B486C
:1057D000FEF793F808212948FEF724F9284C012107
:1057E0002046FEF7DFF8012280212046FEF7D8F898
:1057F000FAF740FEFEF7C4F8FDF714FBFDF75EFD77
:105800001625FF20FDF73EFD0020FDF73BFD00249F
:1058100005EB0410C0B222460021FDF7E3FD641C35
:10582000E4B2042CF4D34FF4FA642046FAF766FE8F
:10583000012314A203210020FDF7F8FD022315A285
:1058400004210020FDF7F2FD2046FAF757FEFDF790
:10585000F7FCFDF79CFD2046FAF750FEFDF7A3FD8F
:10586000104800210090082380220846FDF7EBFC39
:105870002046FAF743FEC4E7E40600202C07002088
:1058800000080140456D6265644669726520456C9B
:105890006563000048656C6C6F20456D6265644609
:1058A000697265000000002001020203040506077A
:1058B00008090A0B0C0D0E0F10100000000000006C
:1058C00000000102030406070809000000000102AD
:1058D00003040000000000000000002F0000000092
:1058E0000700070000147F147F1400242A7F2A1267
:1058F0000062640813230036495522500000050356
:10590000000000001C224100000041221C00001485
:10591000083E08140008083E0808000000A06000C7
:105920000008080808080000606000000020100857
:105930000402003E5149453E0000427F40000042C3
:1059400061514946002141454B31001814127F1026
:10595000002745454539003C4A4949300001710955
:10596000050300364949493600064949291E000009
:1059700036360000000056360000000814224100B0
:1059800000141414141400004122140800020151E0
:10599000090600324959513E007C1211127C007FE9
:1059A00049494936003E41414122007F4141221C84
:1059B000007F49494941007F09090901003E4149E9
:1059C000497A007F0808087F0000417F41000020DD
:1059D00040413F01007F08142241007F4040404089
:1059E000007F020C027F007F0408107F003E4141CF
:1059F000413E007F09090906003E4151215E007FBA
:105A0000091929460046494949310001017F010130
:105A1000003F4040403F001F2040201F003F4038D3
:105A2000403F006314081463000708700807006112
:105A30005149454300007F41410000552A552A55F0
:105A4000000041417F000004020102040040404088
:105A50004040000001020400002054545478007FAC
:105A60004844443800384444442000384444487F83
:105A700000385454541800087E0901020018A4A4E8
:105A8000A47C007F080404780000447D40000040AE
:105A900080847D00007F102844000000417F40008A
:105AA000007C04180478007C08040478003844441E
:105AB000443800FC242424180018242418FC007CFA
:105AC0000804040800485454542000043F44402073
:105AD000003C4040207C001C2040201C003C40300A
